{
  "_format": "hh-sol-artifact-1",
  "contractName": "PaymentSplitter",
  "sourceName": "contracts/finance/PaymentSplitter.sol",
  "abi": [
    {
      "inputs": [
        {
          "internalType": "address[]",
          "name": "payees",
          "type": "address[]"
        },
        {
          "internalType": "uint256[]",
          "name": "shares_",
          "type": "uint256[]"
        }
      ],
      "stateMutability": "payable",
      "type": "constructor"
    },
    {
      "anonymous": false,
      "inputs": [
        {
          "indexed": false,
          "internalType": "address",
          "name": "account",
          "type": "address"
        },
        {
          "indexed": false,
          "internalType": "uint256",
          "name": "shares",
          "type": "uint256"
        }
      ],
      "name": "PayeeAdded",
      "type": "event"
    },
    {
      "anonymous": false,
      "inputs": [
        {
          "indexed": false,
          "internalType": "address",
          "name": "from",
          "type": "address"
        },
        {
          "indexed": false,
          "internalType": "uint256",
          "name": "amount",
          "type": "uint256"
        }
      ],
      "name": "PaymentReceived",
      "type": "event"
    },
    {
      "anonymous": false,
      "inputs": [
        {
          "indexed": false,
          "internalType": "address",
          "name": "to",
          "type": "address"
        },
        {
          "indexed": false,
          "internalType": "uint256",
          "name": "amount",
          "type": "uint256"
        }
      ],
      "name": "PaymentReleased",
      "type": "event"
    },
    {
      "inputs": [
        {
          "internalType": "uint256",
          "name": "index",
          "type": "uint256"
        }
      ],
      "name": "payee",
      "outputs": [
        {
          "internalType": "address",
          "name": "",
          "type": "address"
        }
      ],
      "stateMutability": "view",
      "type": "function"
    },
    {
      "inputs": [
        {
          "internalType": "address payable",
          "name": "account",
          "type": "address"
        }
      ],
      "name": "release",
      "outputs": [],
      "stateMutability": "nonpayable",
      "type": "function"
    },
    {
      "inputs": [
        {
          "internalType": "address",
          "name": "account",
          "type": "address"
        }
      ],
      "name": "released",
      "outputs": [
        {
          "internalType": "uint256",
          "name": "",
          "type": "uint256"
        }
      ],
      "stateMutability": "view",
      "type": "function"
    },
    {
      "inputs": [
        {
          "internalType": "address",
          "name": "account",
          "type": "address"
        }
      ],
      "name": "shares",
      "outputs": [
        {
          "internalType": "uint256",
          "name": "",
          "type": "uint256"
        }
      ],
      "stateMutability": "view",
      "type": "function"
    },
    {
      "inputs": [],
      "name": "totalReleased",
      "outputs": [
        {
          "internalType": "uint256",
          "name": "",
          "type": "uint256"
        }
      ],
      "stateMutability": "view",
      "type": "function"
    },
    {
      "inputs": [],
      "name": "totalShares",
      "outputs": [
        {
          "internalType": "uint256",
          "name": "",
          "type": "uint256"
        }
      ],
      "stateMutability": "view",
      "type": "function"
    },
    {
      "stateMutability": "payable",
      "type": "receive"
    }
  ],
  "bytecode": "0x608060405260405162000b6a38038062000b6a8339810160408190526200002691620003db565b8051825114620000985760405162461bcd60e51b815260206004820152603260248201527f5061796d656e7453706c69747465723a2070617965657320616e6420736861726044820152710cae640d8cadccee8d040dad2e6dac2e8c6d60731b60648201526084015b60405180910390fd5b6000825111620000eb5760405162461bcd60e51b815260206004820152601a60248201527f5061796d656e7453706c69747465723a206e6f2070617965657300000000000060448201526064016200008f565b60005b82518110156200016f576200015a8382815181106200011d57634e487b7160e01b600052603260045260246000fd5b60200260200101518383815181106200014657634e487b7160e01b600052603260045260246000fd5b60200260200101516200017860201b60201c565b8062000166816200052c565b915050620000ee565b50505062000576565b6001600160a01b038216620001e55760405162461bcd60e51b815260206004820152602c60248201527f5061796d656e7453706c69747465723a206163636f756e74206973207468652060448201526b7a65726f206164647265737360a01b60648201526084016200008f565b60008111620002375760405162461bcd60e51b815260206004820152601d60248201527f5061796d656e7453706c69747465723a2073686172657320617265203000000060448201526064016200008f565b6001600160a01b03821660009081526002602052604090205415620002b35760405162461bcd60e51b815260206004820152602b60248201527f5061796d656e7453706c69747465723a206163636f756e7420616c726561647960448201526a206861732073686172657360a81b60648201526084016200008f565b60048054600181019091557f8a35acfbc15ff81a39ae7d344fd709f28e8600b4aa8c65c6b64bfe7fe36bd19b0180546001600160a01b0319166001600160a01b0384169081179091556000908152600260205260408120829055546200031b90829062000511565b600055604080516001600160a01b0384168152602081018390527f40c340f65e17194d14ddddb073d3c9f888e3cb52b5aae0c6c7706b4fbc905fac910160405180910390a15050565b600082601f83011262000375578081fd5b815160206200038e6200038883620004eb565b620004b8565b80838252828201915082860187848660051b8901011115620003ae578586fd5b855b85811015620003ce57815184529284019290840190600101620003b0565b5090979650505050505050565b60008060408385031215620003ee578182fd5b82516001600160401b038082111562000405578384fd5b818501915085601f83011262000419578384fd5b815160206200042c6200038883620004eb565b8083825282820191508286018a848660051b89010111156200044c578889fd5b8896505b84871015620004855780516001600160a01b03811681146200047057898afd5b83526001969096019591830191830162000450565b50918801519196509093505050808211156200049f578283fd5b50620004ae8582860162000364565b9150509250929050565b604051601f8201601f191681016001600160401b0381118282101715620004e357620004e362000560565b604052919050565b60006001600160401b0382111562000507576200050762000560565b5060051b60200190565b600082198211156200052757620005276200054a565b500190565b60006000198214156200054357620005436200054a565b5060010190565b634e487b7160e01b600052601160045260246000fd5b634e487b7160e01b600052604160045260246000fd5b6105e480620005866000396000f3fe6080604052600436106100595760003560e01c806319165587146100a75780633a98ef39146100c95780638b83209b146100ed5780639852595c14610125578063ce7c2ac21461015b578063e33b7de314610191576100a2565b366100a2577f6ef95f06320e7a25a04a175ca677b7052bdd97131872c2192525a629f51be77033604080516001600160a01b0390921682523460208301520160405180910390a1005b600080fd5b3480156100b357600080fd5b506100c76100c23660046104d7565b6101a6565b005b3480156100d557600080fd5b506000545b6040519081526020015b60405180910390f35b3480156100f957600080fd5b5061010d6101083660046104fa565b61037b565b6040516001600160a01b0390911681526020016100e4565b34801561013157600080fd5b506100da6101403660046104d7565b6001600160a01b031660009081526003602052604090205490565b34801561016757600080fd5b506100da6101763660046104d7565b6001600160a01b031660009081526002602052604090205490565b34801561019d57600080fd5b506001546100da565b6001600160a01b03811660009081526002602052604090205461021f5760405162461bcd60e51b815260206004820152602660248201527f5061796d656e7453706c69747465723a206163636f756e7420686173206e6f2060448201526573686172657360d01b60648201526084015b60405180910390fd5b60006001544761022f9190610512565b6001600160a01b03831660009081526003602090815260408083205483546002909352908320549394509192610265908561054a565b61026f919061052a565b6102799190610569565b9050806102dc5760405162461bcd60e51b815260206004820152602b60248201527f5061796d656e7453706c69747465723a206163636f756e74206973206e6f742060448201526a191d59481c185e5b595b9d60aa1b6064820152608401610216565b6001600160a01b038316600090815260036020526040902054610300908290610512565b6001600160a01b038416600090815260036020526040902055600154610327908290610512565b60015561033483826103b9565b604080516001600160a01b0385168152602081018390527fdf20fd1e76bc69d672e4814fafb2c449bba3a5369d8359adf9e05e6fde87b056910160405180910390a1505050565b60006004828154811061039e57634e487b7160e01b600052603260045260246000fd5b6000918252602090912001546001600160a01b031692915050565b804710156104095760405162461bcd60e51b815260206004820152601d60248201527f416464726573733a20696e73756666696369656e742062616c616e63650000006044820152606401610216565b6000826001600160a01b03168260405160006040518083038185875af1925050503d8060008114610456576040519150601f19603f3d011682016040523d82523d6000602084013e61045b565b606091505b50509050806104d25760405162461bcd60e51b815260206004820152603a60248201527f416464726573733a20756e61626c6520746f2073656e642076616c75652c207260448201527f6563697069656e74206d617920686176652072657665727465640000000000006064820152608401610216565b505050565b6000602082840312156104e8578081fd5b81356104f381610596565b9392505050565b60006020828403121561050b578081fd5b5035919050565b6000821982111561052557610525610580565b500190565b60008261054557634e487b7160e01b81526012600452602481fd5b500490565b600081600019048311821515161561056457610564610580565b500290565b60008282101561057b5761057b610580565b500390565b634e487b7160e01b600052601160045260246000fd5b6001600160a01b03811681146105ab57600080fd5b5056fea2646970667358221220fd47b4c67cba81d391f2a7510b725d33aab03c0d4da3265f86bffb2017e1ec8c64736f6c63430008030033",
  "linkReferences": {},
  "deployedLinkReferences": {}
}