{
  "_format": "hh-sol-artifact-1",
  "contractName": "TimelockController",
  "sourceName": "contracts/governance/TimelockController.sol",
  "abi": [
    {
      "inputs": [
        {
          "internalType": "uint256",
          "name": "minDelay",
          "type": "uint256"
        },
        {
          "internalType": "address[]",
          "name": "proposers",
          "type": "address[]"
        },
        {
          "internalType": "address[]",
          "name": "executors",
          "type": "address[]"
        }
      ],
      "stateMutability": "nonpayable",
      "type": "constructor"
    },
    {
      "anonymous": false,
      "inputs": [
        {
          "indexed": true,
          "internalType": "bytes32",
          "name": "id",
          "type": "bytes32"
        },
        {
          "indexed": true,
          "internalType": "uint256",
          "name": "index",
          "type": "uint256"
        },
        {
          "indexed": false,
          "internalType": "address",
          "name": "target",
          "type": "address"
        },
        {
          "indexed": false,
          "internalType": "uint256",
          "name": "value",
          "type": "uint256"
        },
        {
          "indexed": false,
          "internalType": "bytes",
          "name": "data",
          "type": "bytes"
        }
      ],
      "name": "CallExecuted",
      "type": "event"
    },
    {
      "anonymous": false,
      "inputs": [
        {
          "indexed": true,
          "internalType": "bytes32",
          "name": "id",
          "type": "bytes32"
        },
        {
          "indexed": true,
          "internalType": "uint256",
          "name": "index",
          "type": "uint256"
        },
        {
          "indexed": false,
          "internalType": "address",
          "name": "target",
          "type": "address"
        },
        {
          "indexed": false,
          "internalType": "uint256",
          "name": "value",
          "type": "uint256"
        },
        {
          "indexed": false,
          "internalType": "bytes",
          "name": "data",
          "type": "bytes"
        },
        {
          "indexed": false,
          "internalType": "bytes32",
          "name": "predecessor",
          "type": "bytes32"
        },
        {
          "indexed": false,
          "internalType": "uint256",
          "name": "delay",
          "type": "uint256"
        }
      ],
      "name": "CallScheduled",
      "type": "event"
    },
    {
      "anonymous": false,
      "inputs": [
        {
          "indexed": true,
          "internalType": "bytes32",
          "name": "id",
          "type": "bytes32"
        }
      ],
      "name": "Cancelled",
      "type": "event"
    },
    {
      "anonymous": false,
      "inputs": [
        {
          "indexed": false,
          "internalType": "uint256",
          "name": "oldDuration",
          "type": "uint256"
        },
        {
          "indexed": false,
          "internalType": "uint256",
          "name": "newDuration",
          "type": "uint256"
        }
      ],
      "name": "MinDelayChange",
      "type": "event"
    },
    {
      "anonymous": false,
      "inputs": [
        {
          "indexed": true,
          "internalType": "bytes32",
          "name": "role",
          "type": "bytes32"
        },
        {
          "indexed": true,
          "internalType": "bytes32",
          "name": "previousAdminRole",
          "type": "bytes32"
        },
        {
          "indexed": true,
          "internalType": "bytes32",
          "name": "newAdminRole",
          "type": "bytes32"
        }
      ],
      "name": "RoleAdminChanged",
      "type": "event"
    },
    {
      "anonymous": false,
      "inputs": [
        {
          "indexed": true,
          "internalType": "bytes32",
          "name": "role",
          "type": "bytes32"
        },
        {
          "indexed": true,
          "internalType": "address",
          "name": "account",
          "type": "address"
        },
        {
          "indexed": true,
          "internalType": "address",
          "name": "sender",
          "type": "address"
        }
      ],
      "name": "RoleGranted",
      "type": "event"
    },
    {
      "anonymous": false,
      "inputs": [
        {
          "indexed": true,
          "internalType": "bytes32",
          "name": "role",
          "type": "bytes32"
        },
        {
          "indexed": true,
          "internalType": "address",
          "name": "account",
          "type": "address"
        },
        {
          "indexed": true,
          "internalType": "address",
          "name": "sender",
          "type": "address"
        }
      ],
      "name": "RoleRevoked",
      "type": "event"
    },
    {
      "inputs": [],
      "name": "DEFAULT_ADMIN_ROLE",
      "outputs": [
        {
          "internalType": "bytes32",
          "name": "",
          "type": "bytes32"
        }
      ],
      "stateMutability": "view",
      "type": "function"
    },
    {
      "inputs": [],
      "name": "EXECUTOR_ROLE",
      "outputs": [
        {
          "internalType": "bytes32",
          "name": "",
          "type": "bytes32"
        }
      ],
      "stateMutability": "view",
      "type": "function"
    },
    {
      "inputs": [],
      "name": "PROPOSER_ROLE",
      "outputs": [
        {
          "internalType": "bytes32",
          "name": "",
          "type": "bytes32"
        }
      ],
      "stateMutability": "view",
      "type": "function"
    },
    {
      "inputs": [],
      "name": "TIMELOCK_ADMIN_ROLE",
      "outputs": [
        {
          "internalType": "bytes32",
          "name": "",
          "type": "bytes32"
        }
      ],
      "stateMutability": "view",
      "type": "function"
    },
    {
      "inputs": [
        {
          "internalType": "bytes32",
          "name": "id",
          "type": "bytes32"
        }
      ],
      "name": "cancel",
      "outputs": [],
      "stateMutability": "nonpayable",
      "type": "function"
    },
    {
      "inputs": [
        {
          "internalType": "address",
          "name": "target",
          "type": "address"
        },
        {
          "internalType": "uint256",
          "name": "value",
          "type": "uint256"
        },
        {
          "internalType": "bytes",
          "name": "data",
          "type": "bytes"
        },
        {
          "internalType": "bytes32",
          "name": "predecessor",
          "type": "bytes32"
        },
        {
          "internalType": "bytes32",
          "name": "salt",
          "type": "bytes32"
        }
      ],
      "name": "execute",
      "outputs": [],
      "stateMutability": "payable",
      "type": "function"
    },
    {
      "inputs": [
        {
          "internalType": "address[]",
          "name": "targets",
          "type": "address[]"
        },
        {
          "internalType": "uint256[]",
          "name": "values",
          "type": "uint256[]"
        },
        {
          "internalType": "bytes[]",
          "name": "datas",
          "type": "bytes[]"
        },
        {
          "internalType": "bytes32",
          "name": "predecessor",
          "type": "bytes32"
        },
        {
          "internalType": "bytes32",
          "name": "salt",
          "type": "bytes32"
        }
      ],
      "name": "executeBatch",
      "outputs": [],
      "stateMutability": "payable",
      "type": "function"
    },
    {
      "inputs": [],
      "name": "getMinDelay",
      "outputs": [
        {
          "internalType": "uint256",
          "name": "duration",
          "type": "uint256"
        }
      ],
      "stateMutability": "view",
      "type": "function"
    },
    {
      "inputs": [
        {
          "internalType": "bytes32",
          "name": "role",
          "type": "bytes32"
        }
      ],
      "name": "getRoleAdmin",
      "outputs": [
        {
          "internalType": "bytes32",
          "name": "",
          "type": "bytes32"
        }
      ],
      "stateMutability": "view",
      "type": "function"
    },
    {
      "inputs": [
        {
          "internalType": "bytes32",
          "name": "id",
          "type": "bytes32"
        }
      ],
      "name": "getTimestamp",
      "outputs": [
        {
          "internalType": "uint256",
          "name": "timestamp",
          "type": "uint256"
        }
      ],
      "stateMutability": "view",
      "type": "function"
    },
    {
      "inputs": [
        {
          "internalType": "bytes32",
          "name": "role",
          "type": "bytes32"
        },
        {
          "internalType": "address",
          "name": "account",
          "type": "address"
        }
      ],
      "name": "grantRole",
      "outputs": [],
      "stateMutability": "nonpayable",
      "type": "function"
    },
    {
      "inputs": [
        {
          "internalType": "bytes32",
          "name": "role",
          "type": "bytes32"
        },
        {
          "internalType": "address",
          "name": "account",
          "type": "address"
        }
      ],
      "name": "hasRole",
      "outputs": [
        {
          "internalType": "bool",
          "name": "",
          "type": "bool"
        }
      ],
      "stateMutability": "view",
      "type": "function"
    },
    {
      "inputs": [
        {
          "internalType": "address",
          "name": "target",
          "type": "address"
        },
        {
          "internalType": "uint256",
          "name": "value",
          "type": "uint256"
        },
        {
          "internalType": "bytes",
          "name": "data",
          "type": "bytes"
        },
        {
          "internalType": "bytes32",
          "name": "predecessor",
          "type": "bytes32"
        },
        {
          "internalType": "bytes32",
          "name": "salt",
          "type": "bytes32"
        }
      ],
      "name": "hashOperation",
      "outputs": [
        {
          "internalType": "bytes32",
          "name": "hash",
          "type": "bytes32"
        }
      ],
      "stateMutability": "pure",
      "type": "function"
    },
    {
      "inputs": [
        {
          "internalType": "address[]",
          "name": "targets",
          "type": "address[]"
        },
        {
          "internalType": "uint256[]",
          "name": "values",
          "type": "uint256[]"
        },
        {
          "internalType": "bytes[]",
          "name": "datas",
          "type": "bytes[]"
        },
        {
          "internalType": "bytes32",
          "name": "predecessor",
          "type": "bytes32"
        },
        {
          "internalType": "bytes32",
          "name": "salt",
          "type": "bytes32"
        }
      ],
      "name": "hashOperationBatch",
      "outputs": [
        {
          "internalType": "bytes32",
          "name": "hash",
          "type": "bytes32"
        }
      ],
      "stateMutability": "pure",
      "type": "function"
    },
    {
      "inputs": [
        {
          "internalType": "bytes32",
          "name": "id",
          "type": "bytes32"
        }
      ],
      "name": "isOperation",
      "outputs": [
        {
          "internalType": "bool",
          "name": "pending",
          "type": "bool"
        }
      ],
      "stateMutability": "view",
      "type": "function"
    },
    {
      "inputs": [
        {
          "internalType": "bytes32",
          "name": "id",
          "type": "bytes32"
        }
      ],
      "name": "isOperationDone",
      "outputs": [
        {
          "internalType": "bool",
          "name": "done",
          "type": "bool"
        }
      ],
      "stateMutability": "view",
      "type": "function"
    },
    {
      "inputs": [
        {
          "internalType": "bytes32",
          "name": "id",
          "type": "bytes32"
        }
      ],
      "name": "isOperationPending",
      "outputs": [
        {
          "internalType": "bool",
          "name": "pending",
          "type": "bool"
        }
      ],
      "stateMutability": "view",
      "type": "function"
    },
    {
      "inputs": [
        {
          "internalType": "bytes32",
          "name": "id",
          "type": "bytes32"
        }
      ],
      "name": "isOperationReady",
      "outputs": [
        {
          "internalType": "bool",
          "name": "ready",
          "type": "bool"
        }
      ],
      "stateMutability": "view",
      "type": "function"
    },
    {
      "inputs": [
        {
          "internalType": "bytes32",
          "name": "role",
          "type": "bytes32"
        },
        {
          "internalType": "address",
          "name": "account",
          "type": "address"
        }
      ],
      "name": "renounceRole",
      "outputs": [],
      "stateMutability": "nonpayable",
      "type": "function"
    },
    {
      "inputs": [
        {
          "internalType": "bytes32",
          "name": "role",
          "type": "bytes32"
        },
        {
          "internalType": "address",
          "name": "account",
          "type": "address"
        }
      ],
      "name": "revokeRole",
      "outputs": [],
      "stateMutability": "nonpayable",
      "type": "function"
    },
    {
      "inputs": [
        {
          "internalType": "address",
          "name": "target",
          "type": "address"
        },
        {
          "internalType": "uint256",
          "name": "value",
          "type": "uint256"
        },
        {
          "internalType": "bytes",
          "name": "data",
          "type": "bytes"
        },
        {
          "internalType": "bytes32",
          "name": "predecessor",
          "type": "bytes32"
        },
        {
          "internalType": "bytes32",
          "name": "salt",
          "type": "bytes32"
        },
        {
          "internalType": "uint256",
          "name": "delay",
          "type": "uint256"
        }
      ],
      "name": "schedule",
      "outputs": [],
      "stateMutability": "nonpayable",
      "type": "function"
    },
    {
      "inputs": [
        {
          "internalType": "address[]",
          "name": "targets",
          "type": "address[]"
        },
        {
          "internalType": "uint256[]",
          "name": "values",
          "type": "uint256[]"
        },
        {
          "internalType": "bytes[]",
          "name": "datas",
          "type": "bytes[]"
        },
        {
          "internalType": "bytes32",
          "name": "predecessor",
          "type": "bytes32"
        },
        {
          "internalType": "bytes32",
          "name": "salt",
          "type": "bytes32"
        },
        {
          "internalType": "uint256",
          "name": "delay",
          "type": "uint256"
        }
      ],
      "name": "scheduleBatch",
      "outputs": [],
      "stateMutability": "nonpayable",
      "type": "function"
    },
    {
      "inputs": [
        {
          "internalType": "bytes4",
          "name": "interfaceId",
          "type": "bytes4"
        }
      ],
      "name": "supportsInterface",
      "outputs": [
        {
          "internalType": "bool",
          "name": "",
          "type": "bool"
        }
      ],
      "stateMutability": "view",
      "type": "function"
    },
    {
      "inputs": [
        {
          "internalType": "uint256",
          "name": "newDelay",
          "type": "uint256"
        }
      ],
      "name": "updateDelay",
      "outputs": [],
      "stateMutability": "nonpayable",
      "type": "function"
    },
    {
      "stateMutability": "payable",
      "type": "receive"
    }
  ],
  "bytecode": "0x60806040523480156200001157600080fd5b5060405162001e8238038062001e828339810160408190526200003491620003c6565b6200004f60008051602062001e2283398151915280620001e1565b6200007960008051602062001e4283398151915260008051602062001e22833981519152620001e1565b620000a360008051602062001e6283398151915260008051602062001e22833981519152620001e1565b620000be60008051602062001e228339815191523362000236565b620000d960008051602062001e228339815191523062000236565b60005b825181101562000142576200012f60008051602062001e428339815191528483815181106200011b57634e487b7160e01b600052603260045260246000fd5b60200260200101516200023660201b60201c565b6200013a8162000437565b9050620000dc565b5060005b815181101562000198576200018560008051602062001e628339815191528383815181106200011b57634e487b7160e01b600052603260045260246000fd5b620001908162000437565b905062000146565b5060028390556040805160008152602081018590527f11c24f4ead16507c69ac467fbd5e4eed5fb5c699626d2cc6d66421df253886d5910160405180910390a150505062000475565b6000620001ee8362000246565b600084815260208190526040808220600101859055519192508391839186917fbd79b86ffe0ab8e8776151514217cd7cacd52c909f66475c3af44e129f0b00ff9190a4505050565b6200024282826200025e565b5050565b6000818152602081905260409020600101545b919050565b6000828152602081815260408083206001600160a01b038516845290915290205460ff1662000242576000828152602081815260408083206001600160a01b03851684529091529020805460ff19166001179055620002ba3390565b6001600160a01b0316816001600160a01b0316837f2f8788117e7eff1d82e926ec794901d17c78024a50270940304540a733656f0d60405160405180910390a45050565b80516001600160a01b03811681146200025957600080fd5b600082601f83011262000327578081fd5b815160206001600160401b03808311156200034657620003466200045f565b8260051b604051601f19603f830116810181811084821117156200036e576200036e6200045f565b604052848152838101925086840182880185018910156200038d578687fd5b8692505b85831015620003ba57620003a581620002fe565b84529284019260019290920191840162000391565b50979650505050505050565b600080600060608486031215620003db578283fd5b835160208501519093506001600160401b0380821115620003fa578384fd5b620004088783880162000316565b935060408601519150808211156200041e578283fd5b506200042d8682870162000316565b9150509250925092565b60006000198214156200045857634e487b7160e01b81526011600452602481fd5b5060010190565b634e487b7160e01b600052604160045260246000fd5b61199d80620004856000396000f3fe60806040526004361061014f5760003560e01c806364d62353116100b6578063b1c5f4271161006f578063b1c5f427146103f3578063c4d252f514610413578063d45c443514610433578063d547741f14610460578063e38335e514610480578063f27a0c921461049357610156565b806364d623531461033c5780638065657f1461035c5780638f2a0bb01461037c5780638f61f4f51461039c57806391d14854146103be578063a217fddf146103de57610156565b8063248a9ca311610108578063248a9ca31461025b5780632ab0f5291461028b5780632f2ff15d146102bc57806331d50750146102dc57806336568abe146102fc578063584b153e1461031c57610156565b806301d5062a1461015b57806301ffc9a71461017d57806307bd0265146101b25780630d3cf6fc146101f4578063134008d31461022857806313bc9f201461023b57610156565b3661015657005b600080fd5b34801561016757600080fd5b5061017b610176366004611312565b6104a8565b005b34801561018957600080fd5b5061019d61019836600461151b565b61052d565b60405190151581526020015b60405180910390f35b3480156101be57600080fd5b506101e67fd8aa0f3194971a2a116679f7c2090f6939c8d4e01a2a8d7e41d55e5351469e6381565b6040519081526020016101a9565b34801561020057600080fd5b506101e67f5f58e3a2316349923ce3780f8d587db2d72378aed66a8261c916544fa6846ca581565b61017b6102363660046112a8565b610566565b34801561024757600080fd5b5061019d6102563660046114d8565b6105de565b34801561026757600080fd5b506101e66102763660046114d8565b60009081526020819052604090206001015490565b34801561029757600080fd5b5061019d6102a63660046114d8565b6000908152600160208190526040909120541490565b3480156102c857600080fd5b5061017b6102d73660046114f0565b610604565b3480156102e857600080fd5b5061019d6102f73660046114d8565b61062f565b34801561030857600080fd5b5061017b6103173660046114f0565b610648565b34801561032857600080fd5b5061019d6103373660046114d8565b6106cb565b34801561034857600080fd5b5061017b6103573660046114d8565b6106e1565b34801561036857600080fd5b506101e66103773660046112a8565b610785565b34801561038857600080fd5b5061017b61039736600461142a565b6107c4565b3480156103a857600080fd5b506101e660008051602061194883398151915281565b3480156103ca57600080fd5b5061019d6103d93660046114f0565b61092f565b3480156103ea57600080fd5b506101e6600081565b3480156103ff57600080fd5b506101e661040e366004611385565b610958565b34801561041f57600080fd5b5061017b61042e3660046114d8565b61099d565b34801561043f57600080fd5b506101e661044e3660046114d8565b60009081526001602052604090205490565b34801561046c57600080fd5b5061017b61047b3660046114f0565b610a61565b61017b61048e366004611385565b610a87565b34801561049f57600080fd5b506002546101e6565b6000805160206119488339815191526104c281335b610be6565b60006104d2898989898989610785565b90506104de8184610c4a565b6000817f4cf4410cc57040e44862ef0f45f3dd5a5e02db8eb8add648d4b0e236f1d07dca8b8b8b8b8b8a60405161051a969594939291906116b1565b60405180910390a3505050505050505050565b60006001600160e01b03198216637965db0b60e01b148061055e57506301ffc9a760e01b6001600160e01b03198316145b90505b919050565b7fd8aa0f3194971a2a116679f7c2090f6939c8d4e01a2a8d7e41d55e5351469e6361059281600061092f565b6105a0576105a081336104bd565b60006105b0888888888888610785565b90506105bc8185610d39565b6105cb8160008a8a8a8a610dd5565b6105d481610ee9565b5050505050505050565b6000818152600160205260408120546001811180156105fd5750428111155b9392505050565b60008281526020819052604090206001015461062081336104bd565b61062a8383610f22565b505050565b60008181526001602052604081205481905b1192915050565b6001600160a01b03811633146106bd5760405162461bcd60e51b815260206004820152602f60248201527f416363657373436f6e74726f6c3a2063616e206f6e6c792072656e6f756e636560448201526e103937b632b9903337b91039b2b63360891b60648201526084015b60405180910390fd5b6106c78282610fa6565b5050565b6000818152600160208190526040822054610641565b3330146107445760405162461bcd60e51b815260206004820152602b60248201527f54696d656c6f636b436f6e74726f6c6c65723a2063616c6c6572206d7573742060448201526a62652074696d656c6f636b60a81b60648201526084016106b4565b60025460408051918252602082018390527f11c24f4ead16507c69ac467fbd5e4eed5fb5c699626d2cc6d66421df253886d5910160405180910390a1600255565b60008686868686866040516020016107a2969594939291906116b1565b6040516020818303038152906040528051906020012090509695505050505050565b6000805160206119488339815191526107dd81336104bd565b8887146107fc5760405162461bcd60e51b81526004016106b4906117c6565b88851461081b5760405162461bcd60e51b81526004016106b4906117c6565b600061082d8b8b8b8b8b8b8b8b610958565b90506108398184610c4a565b60005b8a8110156109215780827f4cf4410cc57040e44862ef0f45f3dd5a5e02db8eb8add648d4b0e236f1d07dca8e8e8581811061088757634e487b7160e01b600052603260045260246000fd5b905060200201602081019061089c919061128e565b8d8d868181106108bc57634e487b7160e01b600052603260045260246000fd5b905060200201358c8c878181106108e357634e487b7160e01b600052603260045260246000fd5b90506020028101906108f59190611853565b8c8b604051610909969594939291906116b1565b60405180910390a361091a81611916565b905061083c565b505050505050505050505050565b6000918252602082815260408084206001600160a01b0393909316845291905290205460ff1690565b600088888888888888886040516020016109799897969594939291906116ee565b60405160208183030381529060405280519060200120905098975050505050505050565b6000805160206119488339815191526109b681336104bd565b6109bf826106cb565b610a255760405162461bcd60e51b815260206004820152603160248201527f54696d656c6f636b436f6e74726f6c6c65723a206f7065726174696f6e2063616044820152701b9b9bdd0818994818d85b98d95b1b1959607a1b60648201526084016106b4565b6000828152600160205260408082208290555183917fbaa1eb22f2a492ba1a5fea61b8df4d27c6c8b5f3971e63bb58fa14ff72eedb7091a25050565b600082815260208190526040902060010154610a7d81336104bd565b61062a8383610fa6565b7fd8aa0f3194971a2a116679f7c2090f6939c8d4e01a2a8d7e41d55e5351469e63610ab381600061092f565b610ac157610ac181336104bd565b878614610ae05760405162461bcd60e51b81526004016106b4906117c6565b878414610aff5760405162461bcd60e51b81526004016106b4906117c6565b6000610b118a8a8a8a8a8a8a8a610958565b9050610b1d8185610d39565b60005b89811015610bd057610bc082828d8d85818110610b4d57634e487b7160e01b600052603260045260246000fd5b9050602002016020810190610b62919061128e565b8c8c86818110610b8257634e487b7160e01b600052603260045260246000fd5b905060200201358b8b87818110610ba957634e487b7160e01b600052603260045260246000fd5b9050602002810190610bbb9190611853565b610dd5565b610bc981611916565b9050610b20565b50610bda81610ee9565b50505050505050505050565b610bf0828261092f565b6106c757610c08816001600160a01b0316601461100b565b610c1383602061100b565b604051602001610c2492919061160a565b60408051601f198184030181529082905262461bcd60e51b82526106b491600401611793565b610c538261062f565b15610cb85760405162461bcd60e51b815260206004820152602f60248201527f54696d656c6f636b436f6e74726f6c6c65723a206f7065726174696f6e20616c60448201526e1c9958591e481cd8da19591d5b1959608a1b60648201526084016106b4565b600254811015610d195760405162461bcd60e51b815260206004820152602660248201527f54696d656c6f636b436f6e74726f6c6c65723a20696e73756666696369656e746044820152652064656c617960d01b60648201526084016106b4565b610d238142611898565b6000928352600160205260409092209190915550565b610d42826105de565b610d5e5760405162461bcd60e51b81526004016106b490611809565b801580610d7a5750600081815260016020819052604090912054145b6106c75760405162461bcd60e51b815260206004820152602660248201527f54696d656c6f636b436f6e74726f6c6c65723a206d697373696e6720646570656044820152656e64656e637960d01b60648201526084016106b4565b6000846001600160a01b0316848484604051610df29291906115fa565b60006040518083038185875af1925050503d8060008114610e2f576040519150601f19603f3d011682016040523d82523d6000602084013e610e34565b606091505b5050905080610ea15760405162461bcd60e51b815260206004820152603360248201527f54696d656c6f636b436f6e74726f6c6c65723a20756e6465726c79696e6720746044820152721c985b9cd858dd1a5bdb881c995d995c9d1959606a1b60648201526084016106b4565b85877fc2617efa69bab66782fa219543714338489c4e9e178271560a91b82c3f612b5887878787604051610ed8949392919061167f565b60405180910390a350505050505050565b610ef2816105de565b610f0e5760405162461bcd60e51b81526004016106b490611809565b600090815260016020819052604090912055565b610f2c828261092f565b6106c7576000828152602081815260408083206001600160a01b03851684529091529020805460ff19166001179055610f623390565b6001600160a01b0316816001600160a01b0316837f2f8788117e7eff1d82e926ec794901d17c78024a50270940304540a733656f0d60405160405180910390a45050565b610fb0828261092f565b156106c7576000828152602081815260408083206001600160a01b0385168085529252808320805460ff1916905551339285917ff6391f5c32d9c69d2a47ea670b442974b53935d1edc7fd64eb21e047a839171b9190a45050565b6060600061101a8360026118b0565b611025906002611898565b67ffffffffffffffff81111561104b57634e487b7160e01b600052604160045260246000fd5b6040519080825280601f01601f191660200182016040528015611075576020820181803683370190505b509050600360fc1b8160008151811061109e57634e487b7160e01b600052603260045260246000fd5b60200101906001600160f81b031916908160001a905350600f60fb1b816001815181106110db57634e487b7160e01b600052603260045260246000fd5b60200101906001600160f81b031916908160001a90535060006110ff8460026118b0565b61110a906001611898565b90505b600181111561119e576f181899199a1a9b1b9c1cb0b131b232b360811b85600f166010811061114c57634e487b7160e01b600052603260045260246000fd5b1a60f81b82828151811061117057634e487b7160e01b600052603260045260246000fd5b60200101906001600160f81b031916908160001a90535060049490941c93611197816118ff565b905061110d565b5083156105fd5760405162461bcd60e51b815260206004820181905260248201527f537472696e67733a20686578206c656e67746820696e73756666696369656e7460448201526064016106b4565b80356001600160a01b038116811461056157600080fd5b60008083601f840112611215578182fd5b50813567ffffffffffffffff81111561122c578182fd5b6020830191508360208260051b850101111561124757600080fd5b9250929050565b60008083601f84011261125f578182fd5b50813567ffffffffffffffff811115611276578182fd5b60208301915083602082850101111561124757600080fd5b60006020828403121561129f578081fd5b6105fd826111ed565b60008060008060008060a087890312156112c0578182fd5b6112c9876111ed565b955060208701359450604087013567ffffffffffffffff8111156112eb578283fd5b6112f789828a0161124e565b979a9699509760608101359660809091013595509350505050565b600080600080600080600060c0888a03121561132c578081fd5b611335886111ed565b965060208801359550604088013567ffffffffffffffff811115611357578182fd5b6113638a828b0161124e565b989b979a50986060810135976080820135975060a09091013595509350505050565b60008060008060008060008060a0898b0312156113a0578081fd5b883567ffffffffffffffff808211156113b7578283fd5b6113c38c838d01611204565b909a50985060208b01359150808211156113db578283fd5b6113e78c838d01611204565b909850965060408b01359150808211156113ff578283fd5b5061140c8b828c01611204565b999c989b509699959896976060870135966080013595509350505050565b600080600080600080600080600060c08a8c031215611447578081fd5b893567ffffffffffffffff8082111561145e578283fd5b61146a8d838e01611204565b909b50995060208c0135915080821115611482578283fd5b61148e8d838e01611204565b909950975060408c01359150808211156114a6578283fd5b506114b38c828d01611204565b9a9d999c50979a969997986060880135976080810135975060a0013595509350505050565b6000602082840312156114e9578081fd5b5035919050565b60008060408385031215611502578182fd5b82359150611512602084016111ed565b90509250929050565b60006020828403121561152c578081fd5b81356001600160e01b0319811681146105fd578182fd5b60008284526020808501808196508560051b8101915084845b878110156115c35782840389528135601e1988360301811261157c578687fd5b8701803567ffffffffffffffff811115611594578788fd5b8036038913156115a2578788fd5b6115af86828985016115d0565b9a87019a955050509084019060010161155c565b5091979650505050505050565b60008284528282602086013780602084860101526020601f19601f85011685010190509392505050565b6000828483379101908152919050565b60007f416363657373436f6e74726f6c3a206163636f756e7420000000000000000000825283516116428160178501602088016118cf565b7001034b99036b4b9b9b4b733903937b6329607d1b60179184019182015283516116738160288401602088016118cf565b01602801949350505050565b600060018060a01b0386168252846020830152606060408301526116a76060830184866115d0565b9695505050505050565b600060018060a01b038816825286602083015260a060408301526116d960a0830186886115d0565b60608301949094525060800152949350505050565b60a0808252810188905260008960c08301825b8b81101561172f576001600160a01b0361171a846111ed565b16825260209283019290910190600101611701565b5083810360208501528881526001600160fb1b0389111561174e578283fd5b8860051b9150818a6020830137016020818101838152848303909101604085015261177a81888a611543565b6060850196909652505050608001529695505050505050565b60006020825282518060208401526117b28160408501602087016118cf565b601f01601f19169190910160400192915050565b60208082526023908201527f54696d656c6f636b436f6e74726f6c6c65723a206c656e677468206d69736d616040820152620e8c6d60eb1b606082015260800190565b6020808252602a908201527f54696d656c6f636b436f6e74726f6c6c65723a206f7065726174696f6e206973604082015269206e6f7420726561647960b01b606082015260800190565b6000808335601e19843603018112611869578283fd5b83018035915067ffffffffffffffff821115611883578283fd5b60200191503681900382131561124757600080fd5b600082198211156118ab576118ab611931565b500190565b60008160001904831182151516156118ca576118ca611931565b500290565b60005b838110156118ea5781810151838201526020016118d2565b838111156118f9576000848401525b50505050565b60008161190e5761190e611931565b506000190190565b600060001982141561192a5761192a611931565b5060010190565b634e487b7160e01b600052601160045260246000fdfeb09aa5aeb3702cfd50b6b62bc4532604938f21248a27a1d5ca736082b6819cc1a2646970667358221220361a1d1e9106ffc77cb76ed529f6648bc4105a53ba3e6687320a78e96c57c24d64736f6c634300080300335f58e3a2316349923ce3780f8d587db2d72378aed66a8261c916544fa6846ca5b09aa5aeb3702cfd50b6b62bc4532604938f21248a27a1d5ca736082b6819cc1d8aa0f3194971a2a116679f7c2090f6939c8d4e01a2a8d7e41d55e5351469e63",
  "linkReferences": {},
  "deployedLinkReferences": {}
}