{
  "_format": "hh-sol-artifact-1",
  "contractName": "EscrowUpgradeable",
  "sourceName": "contracts/utils/escrow/EscrowUpgradeable.sol",
  "abi": [
    {
      "anonymous": false,
      "inputs": [
        {
          "indexed": true,
          "internalType": "address",
          "name": "payee",
          "type": "address"
        },
        {
          "indexed": false,
          "internalType": "uint256",
          "name": "weiAmount",
          "type": "uint256"
        }
      ],
      "name": "Deposited",
      "type": "event"
    },
    {
      "anonymous": false,
      "inputs": [
        {
          "indexed": true,
          "internalType": "address",
          "name": "previousOwner",
          "type": "address"
        },
        {
          "indexed": true,
          "internalType": "address",
          "name": "newOwner",
          "type": "address"
        }
      ],
      "name": "OwnershipTransferred",
      "type": "event"
    },
    {
      "anonymous": false,
      "inputs": [
        {
          "indexed": true,
          "internalType": "address",
          "name": "payee",
          "type": "address"
        },
        {
          "indexed": false,
          "internalType": "uint256",
          "name": "weiAmount",
          "type": "uint256"
        }
      ],
      "name": "Withdrawn",
      "type": "event"
    },
    {
      "inputs": [
        {
          "internalType": "address",
          "name": "payee",
          "type": "address"
        }
      ],
      "name": "deposit",
      "outputs": [],
      "stateMutability": "payable",
      "type": "function"
    },
    {
      "inputs": [
        {
          "internalType": "address",
          "name": "payee",
          "type": "address"
        }
      ],
      "name": "depositsOf",
      "outputs": [
        {
          "internalType": "uint256",
          "name": "",
          "type": "uint256"
        }
      ],
      "stateMutability": "view",
      "type": "function"
    },
    {
      "inputs": [],
      "name": "initialize",
      "outputs": [],
      "stateMutability": "nonpayable",
      "type": "function"
    },
    {
      "inputs": [],
      "name": "owner",
      "outputs": [
        {
          "internalType": "address",
          "name": "",
          "type": "address"
        }
      ],
      "stateMutability": "view",
      "type": "function"
    },
    {
      "inputs": [],
      "name": "renounceOwnership",
      "outputs": [],
      "stateMutability": "nonpayable",
      "type": "function"
    },
    {
      "inputs": [
        {
          "internalType": "address",
          "name": "newOwner",
          "type": "address"
        }
      ],
      "name": "transferOwnership",
      "outputs": [],
      "stateMutability": "nonpayable",
      "type": "function"
    },
    {
      "inputs": [
        {
          "internalType": "address payable",
          "name": "payee",
          "type": "address"
        }
      ],
      "name": "withdraw",
      "outputs": [],
      "stateMutability": "nonpayable",
      "type": "function"
    }
  ],
  "bytecode": "0x608060405234801561001057600080fd5b50610797806100206000396000f3fe6080604052600436106100705760003560e01c80638da5cb5b1161004e5780638da5cb5b146100c1578063e3a9db1a146100ee578063f2fde38b14610132578063f340fa011461015257610070565b806351cff8d914610075578063715018a6146100975780638129fc1c146100ac575b600080fd5b34801561008157600080fd5b50610095610090366004610682565b610165565b005b3480156100a357600080fd5b50610095610207565b3480156100b857600080fd5b5061009561023d565b3480156100cd57600080fd5b506033546040516001600160a01b0390911681526020015b60405180910390f35b3480156100fa57600080fd5b50610124610109366004610682565b6001600160a01b031660009081526065602052604090205490565b6040519081526020016100e5565b34801561013e57600080fd5b5061009561014d366004610682565b6102b1565b610095610160366004610682565b610349565b6033546001600160a01b031633146101985760405162461bcd60e51b815260040161018f906106f3565b60405180910390fd5b6001600160a01b03811660008181526065602052604081208054919055906101c090826103dd565b816001600160a01b03167f7084f5476618d8e60b11ef0d7d3f06914655adb8793e28ff7f018d4c76d505d5826040516101fb91815260200190565b60405180910390a25050565b6033546001600160a01b031633146102315760405162461bcd60e51b815260040161018f906106f3565b61023b60006104fb565b565b600054610100900460ff1680610256575060005460ff16155b6102725760405162461bcd60e51b815260040161018f906106a5565b600054610100900460ff16158015610294576000805461ffff19166101011790555b61029c61054d565b80156102ae576000805461ff00191690555b50565b6033546001600160a01b031633146102db5760405162461bcd60e51b815260040161018f906106f3565b6001600160a01b0381166103405760405162461bcd60e51b815260206004820152602660248201527f4f776e61626c653a206e6577206f776e657220697320746865207a65726f206160448201526564647265737360d01b606482015260840161018f565b6102ae816104fb565b6033546001600160a01b031633146103735760405162461bcd60e51b815260040161018f906106f3565b6001600160a01b03811660009081526065602052604081208054349283929161039d908490610728565b90915550506040518181526001600160a01b038316907f2da466a7b24304f47e87fa2e1e5a81b9831ce54fec19055ce277ca2f39ba42c4906020016101fb565b8047101561042d5760405162461bcd60e51b815260206004820152601d60248201527f416464726573733a20696e73756666696369656e742062616c616e6365000000604482015260640161018f565b6000826001600160a01b03168260405160006040518083038185875af1925050503d806000811461047a576040519150601f19603f3d011682016040523d82523d6000602084013e61047f565b606091505b50509050806104f65760405162461bcd60e51b815260206004820152603a60248201527f416464726573733a20756e61626c6520746f2073656e642076616c75652c207260448201527f6563697069656e74206d61792068617665207265766572746564000000000000606482015260840161018f565b505050565b603380546001600160a01b038381166001600160a01b0319831681179093556040519116919082907f8be0079c531659141344cd1fd0a4f28419497f9722a3daafe3b4186f6b6457e090600090a35050565b600054610100900460ff1680610566575060005460ff16155b6105825760405162461bcd60e51b815260040161018f906106a5565b600054610100900460ff161580156105a4576000805461ffff19166101011790555b6105ac6105b8565b6105b4610622565b61029c5b600054610100900460ff16806105d1575060005460ff16155b6105ed5760405162461bcd60e51b815260040161018f906106a5565b600054610100900460ff1615801561029c576000805461ffff191661010117905580156102ae576000805461ff001916905550565b600054610100900460ff168061063b575060005460ff16155b6106575760405162461bcd60e51b815260040161018f906106a5565b600054610100900460ff16158015610679576000805461ffff19166101011790555b61029c336104fb565b600060208284031215610693578081fd5b813561069e8161074c565b9392505050565b6020808252602e908201527f496e697469616c697a61626c653a20636f6e747261637420697320616c72656160408201526d191e481a5b9a5d1a585b1a5e995960921b606082015260800190565b6020808252818101527f4f776e61626c653a2063616c6c6572206973206e6f7420746865206f776e6572604082015260600190565b6000821982111561074757634e487b7160e01b81526011600452602481fd5b500190565b6001600160a01b03811681146102ae57600080fdfea26469706673582212209d575624978f1587a60baaaf3185655693db396e8e26251e40f337fa52271e8664736f6c63430008030033",
  "linkReferences": {},
  "deployedLinkReferences": {}
}