{
  "_format": "hh-sol-artifact-1",
  "contractName": "MinimalForwarderUpgradeable",
  "sourceName": "contracts/metatx/MinimalForwarderUpgradeable.sol",
  "abi": [
    {
      "inputs": [
        {
          "components": [
            {
              "internalType": "address",
              "name": "from",
              "type": "address"
            },
            {
              "internalType": "address",
              "name": "to",
              "type": "address"
            },
            {
              "internalType": "uint256",
              "name": "value",
              "type": "uint256"
            },
            {
              "internalType": "uint256",
              "name": "gas",
              "type": "uint256"
            },
            {
              "internalType": "uint256",
              "name": "nonce",
              "type": "uint256"
            },
            {
              "internalType": "bytes",
              "name": "data",
              "type": "bytes"
            }
          ],
          "internalType": "struct MinimalForwarderUpgradeable.ForwardRequest",
          "name": "req",
          "type": "tuple"
        },
        {
          "internalType": "bytes",
          "name": "signature",
          "type": "bytes"
        }
      ],
      "name": "execute",
      "outputs": [
        {
          "internalType": "bool",
          "name": "",
          "type": "bool"
        },
        {
          "internalType": "bytes",
          "name": "",
          "type": "bytes"
        }
      ],
      "stateMutability": "payable",
      "type": "function"
    },
    {
      "inputs": [
        {
          "internalType": "address",
          "name": "from",
          "type": "address"
        }
      ],
      "name": "getNonce",
      "outputs": [
        {
          "internalType": "uint256",
          "name": "",
          "type": "uint256"
        }
      ],
      "stateMutability": "view",
      "type": "function"
    },
    {
      "inputs": [
        {
          "components": [
            {
              "internalType": "address",
              "name": "from",
              "type": "address"
            },
            {
              "internalType": "address",
              "name": "to",
              "type": "address"
            },
            {
              "internalType": "uint256",
              "name": "value",
              "type": "uint256"
            },
            {
              "internalType": "uint256",
              "name": "gas",
              "type": "uint256"
            },
            {
              "internalType": "uint256",
              "name": "nonce",
              "type": "uint256"
            },
            {
              "internalType": "bytes",
              "name": "data",
              "type": "bytes"
            }
          ],
          "internalType": "struct MinimalForwarderUpgradeable.ForwardRequest",
          "name": "req",
          "type": "tuple"
        },
        {
          "internalType": "bytes",
          "name": "signature",
          "type": "bytes"
        }
      ],
      "name": "verify",
      "outputs": [
        {
          "internalType": "bool",
          "name": "",
          "type": "bool"
        }
      ],
      "stateMutability": "view",
      "type": "function"
    }
  ],
  "bytecode": "0x608060405234801561001057600080fd5b50610ad0806100206000396000f3fe6080604052600436106100345760003560e01c80632d0335ab1461003957806347153f8214610082578063bf5d3bdb146100a3575b600080fd5b34801561004557600080fd5b5061006f61005436600461088a565b6001600160a01b031660009081526035602052604090205490565b6040519081526020015b60405180910390f35b6100956100903660046108b8565b6100d3565b6040516100799291906109a5565b3480156100af57600080fd5b506100c36100be3660046108b8565b610281565b6040519015158152602001610079565b600060606100e2858585610281565b61014e5760405162461bcd60e51b815260206004820152603260248201527f4d696e696d616c466f727761726465723a207369676e617475726520646f6573604482015271081b9bdd081b585d18da081c995c5d595cdd60721b60648201526084015b60405180910390fd5b61015d60808601356001610a26565b6035600061016e602089018961088a565b6001600160a01b03166001600160a01b03168152602001908152602001600020819055506000808660200160208101906101a8919061088a565b6001600160a01b0316606088013560408901356101c860a08b018b6109e1565b6101d560208d018d61088a565b6040516020016101e793929190610960565b60408051601f198184030181529082905261020191610989565b600060405180830381858888f193505050503d806000811461023f576040519150601f19603f3d011682016040523d82523d6000602084013e610244565b606091505b509092509050610259603f6060890135610a4a565b5a1161027557634e487b7160e01b600052600160045260246000fd5b90969095509350505050565b60008061039484848080601f01602080910402602001604051908101604052809392919081815260200183838082843760009201919091525061038e92507fdd8f4b70b0f4393e889bd39128a30628a78b61816a9eb8199759e7a349657e4891506102f1905060208a018a61088a565b61030160408b0160208c0161088a565b60408b013560608c013560808d013561031d60a08f018f6109e1565b60405161032b929190610950565b6040805191829003822060208301989098526001600160a01b0396871690820152949093166060850152608084019190915260a083015260c082015260e08101919091526101000160405160208183030381529060405280519060200120610400565b90610454565b90506080850135603560006103ac602089018961088a565b6001600160a01b03166001600160a01b03168152602001908152602001600020541480156103f757506103e2602086018661088a565b6001600160a01b0316816001600160a01b0316145b95945050505050565b600061044e61040d610478565b8360405161190160f01b6020820152602281018390526042810182905260009060620160405160208183030381529060405280519060200120905092915050565b92915050565b600080600061046385856104f8565b9150915061047081610568565b509392505050565b60006104f37f8b73c3c69bb8fe3d512ecc4cf759cc79239f7b179b0ffacaa9a75d522b39400f6104a760015490565b6002546040805160208101859052908101839052606081018290524660808201523060a082015260009060c0016040516020818303038152906040528051906020012090509392505050565b905090565b60008082516041141561052f5760208301516040840151606085015160001a6105238782858561076e565b94509450505050610561565b825160401415610559576020830151604084015161054e86838361085b565b935093505050610561565b506000905060025b9250929050565b600081600481111561058a57634e487b7160e01b600052602160045260246000fd5b14156105955761076b565b60018160048111156105b757634e487b7160e01b600052602160045260246000fd5b14156106055760405162461bcd60e51b815260206004820152601860248201527f45434453413a20696e76616c6964207369676e617475726500000000000000006044820152606401610145565b600281600481111561062757634e487b7160e01b600052602160045260246000fd5b14156106755760405162461bcd60e51b815260206004820152601f60248201527f45434453413a20696e76616c6964207369676e6174757265206c656e677468006044820152606401610145565b600381600481111561069757634e487b7160e01b600052602160045260246000fd5b14156106f05760405162461bcd60e51b815260206004820152602260248201527f45434453413a20696e76616c6964207369676e6174757265202773272076616c604482015261756560f01b6064820152608401610145565b600481600481111561071257634e487b7160e01b600052602160045260246000fd5b141561076b5760405162461bcd60e51b815260206004820152602260248201527f45434453413a20696e76616c6964207369676e6174757265202776272076616c604482015261756560f01b6064820152608401610145565b50565b6000807f7fffffffffffffffffffffffffffffff5d576e7357a4501ddfe92f46681b20a08311156107a55750600090506003610852565b8460ff16601b141580156107bd57508460ff16601c14155b156107ce5750600090506004610852565b6040805160008082526020820180845289905260ff881692820192909252606081018690526080810185905260019060a0016020604051602081039080840390855afa158015610822573d6000803e3d6000fd5b5050604051601f1901519150506001600160a01b03811661084b57600060019250925050610852565b9150600090505b94509492505050565b6000806001600160ff1b03831660ff84901c601b0161087c8782888561076e565b935093505050935093915050565b60006020828403121561089b578081fd5b81356001600160a01b03811681146108b1578182fd5b9392505050565b6000806000604084860312156108cc578182fd5b833567ffffffffffffffff808211156108e3578384fd5b9085019060c082880312156108f6578384fd5b9093506020850135908082111561090b578384fd5b818601915086601f83011261091e578384fd5b81358181111561092c578485fd5b87602082850101111561093d578485fd5b6020830194508093505050509250925092565b6000828483379101908152919050565b6000838583375060609190911b6bffffffffffffffffffffffff19169101908152601401919050565b6000825161099b818460208701610a6a565b9190910192915050565b600083151582526040602083015282518060408401526109cc816060850160208701610a6a565b601f01601f1916919091016060019392505050565b6000808335601e198436030181126109f7578283fd5b83018035915067ffffffffffffffff821115610a11578283fd5b60200191503681900382131561056157600080fd5b60008219821115610a4557634e487b7160e01b81526011600452602481fd5b500190565b600082610a6557634e487b7160e01b81526012600452602481fd5b500490565b60005b83811015610a85578181015183820152602001610a6d565b83811115610a94576000848401525b5050505056fea2646970667358221220b8e3186c62c2f100dfb04a6f953317de09369447e25b1d3cf1f9a73bab9021fc64736f6c63430008030033",
  "linkReferences": {},
  "deployedLinkReferences": {}
}