{
  "fileName": "ERC1820Implementer.sol",
  "contractName": "ERC1820ImplementerUpgradeSafe",
  "source": "pragma solidity ^0.6.0;\n\nimport \"./IERC1820Implementer.sol\";\nimport \"../Initializable.sol\";\n\n/**\n * @dev Implementation of the {IERC1820Implementer} interface.\n *\n * Contracts may inherit from this and call {_registerInterfaceForAddress} to\n * declare their willingness to be implementers.\n * {IERC1820Registry-setInterfaceImplementer} should then be called for the\n * registration to be complete.\n */\ncontract ERC1820ImplementerUpgradeSafe is Initializable, IERC1820Implementer {\n    function __ERC1820Implementer_init() internal initializer {\n        __ERC1820Implementer_init_unchained();\n    }\n\n    function __ERC1820Implementer_init_unchained() internal initializer {\n\n\n    }\n\n    bytes32 constant private _ERC1820_ACCEPT_MAGIC = keccak256(abi.encodePacked(\"ERC1820_ACCEPT_MAGIC\"));\n\n    mapping(bytes32 => mapping(address => bool)) private _supportedInterfaces;\n\n    /**\n     * See {IERC1820Implementer-canImplementInterfaceForAddress}.\n     */\n    function canImplementInterfaceForAddress(bytes32 interfaceHash, address account) public view override returns (bytes32) {\n        return _supportedInterfaces[interfaceHash][account] ? _ERC1820_ACCEPT_MAGIC : bytes32(0x00);\n    }\n\n    /**\n     * @dev Declares the contract as willing to be an implementer of\n     * `interfaceHash` for `account`.\n     *\n     * See {IERC1820Registry-setInterfaceImplementer} and\n     * {IERC1820Registry-interfaceHash}.\n     */\n    function _registerInterfaceForAddress(bytes32 interfaceHash, address account) internal virtual {\n        _supportedInterfaces[interfaceHash][account] = true;\n    }\n\n    uint256[49] private __gap;\n}\n",
  "sourcePath": "contracts/introspection/ERC1820Implementer.sol",
  "abi": [
    {
      "inputs": [
        {
          "internalType": "bytes32",
          "name": "interfaceHash",
          "type": "bytes32"
        },
        {
          "internalType": "address",
          "name": "account",
          "type": "address"
        }
      ],
      "name": "canImplementInterfaceForAddress",
      "outputs": [
        {
          "internalType": "bytes32",
          "name": "",
          "type": "bytes32"
        }
      ],
      "stateMutability": "view",
      "type": "function"
    }
  ],
  "bytecode": "0x608060405234801561001057600080fd5b50610113806100206000396000f3fe6080604052348015600f57600080fd5b506004361060285760003560e01c8063249cb3fa14602d575b600080fd5b605660048036036040811015604157600080fd5b50803590602001356001600160a01b03166068565b60408051918252519081900360200190f35b60008281526033602090815260408083206001600160a01b038516845290915281205460ff16609757600060d6565b604051602001808073455243313832305f4143434550545f4d4147494360601b8152506014019050604051602081830303815290604052805190602001205b939250505056fea2646970667358221220e408badd6deb2eede82a9c6f155f8f9c7f162e2b4475f332dd00ef1fa5b026c864736f6c63430006070033",
  "compiler": {
    "name": "solc",
    "version": "0.6.7+commit.b8d736ae.Emscripten.clang",
    "optimizer": {
      "enabled": true,
      "runs": 200
    },
    "evmVersion": "petersburg"
  }
}