{
  "fileName": "ERC721PresetMinterPauserAutoId.sol",
  "contractName": "ERC721PresetMinterPauserAutoIdUpgradeSafe",
  "source": "pragma solidity ^0.6.0;\n\nimport \"../access/AccessControl.sol\";\nimport \"../GSN/Context.sol\";\nimport \"../utils/Counters.sol\";\nimport \"../token/ERC721/ERC721.sol\";\nimport \"../token/ERC721/ERC721Burnable.sol\";\nimport \"../token/ERC721/ERC721Pausable.sol\";\nimport \"../Initializable.sol\";\n\n/**\n * @dev {ERC721} token, including:\n *\n *  - ability for holders to burn (destroy) their tokens\n *  - a minter role that allows for token minting (creation)\n *  - a pauser role that allows to stop all token transfers\n *  - token ID and URI autogeneration\n *\n * This contract uses {AccessControl} to lock permissioned functions using the\n * different roles - head to its documentation for details.\n *\n * The account that deploys the contract will be granted the minter and pauser\n * roles, as well as the default admin role, which will let it grant both minter\n * and pauser roles to aother accounts\n */\ncontract ERC721PresetMinterPauserAutoIdUpgradeSafe is Initializable, ContextUpgradeSafe, AccessControlUpgradeSafe, ERC721BurnableUpgradeSafe, ERC721PausableUpgradeSafe {\n    using Counters for Counters.Counter;\n\n    bytes32 public constant MINTER_ROLE = keccak256(\"MINTER_ROLE\");\n    bytes32 public constant PAUSER_ROLE = keccak256(\"PAUSER_ROLE\");\n\n    Counters.Counter private _tokenIdTracker;\n\n    /**\n     * @dev Grants `DEFAULT_ADMIN_ROLE` and `MINTER_ROLE`to the account that\n     * deploys the contract.\n     *\n     * Token URIs will be autogenerated based on `baseURI` and their token IDs.\n     * See {ERC721-tokenURI}.\n     */\n\n    function initialize(string memory name, string memory symbol, string memory baseURI) public {\n        __ERC721PresetMinterPauserAutoId_init(name, symbol, baseURI);\n    }\n\n    function __ERC721PresetMinterPauserAutoId_init(string memory name, string memory symbol, string memory baseURI) internal initializer {\n        __Context_init_unchained();\n        __AccessControl_init_unchained();\n        __ERC165_init_unchained();\n        __ERC721_init_unchained(name, symbol);\n        __ERC721Burnable_init_unchained();\n        __Pausable_init_unchained();\n        __ERC721Pausable_init_unchained();\n        __ERC721PresetMinterPauserAutoId_init_unchained(name, symbol, baseURI);\n    }\n\n    function __ERC721PresetMinterPauserAutoId_init_unchained(string memory name, string memory symbol, string memory baseURI) internal initializer {\n\n\n        _setupRole(DEFAULT_ADMIN_ROLE, _msgSender());\n\n        _setupRole(MINTER_ROLE, _msgSender());\n        _setupRole(PAUSER_ROLE, _msgSender());\n\n        _setBaseURI(baseURI);\n\n    }\n\n\n    /**\n     * @dev Creates a new token for `to`. Its token ID will be automatically\n     * assigned (and available on the emitted {Transfer} event), and the token\n     * URI autogenerated based on the base URI passed at construction.\n     *\n     * See {ERC721-_mint}.\n     *\n     * Requirements:\n     *\n     * - the caller must have the `MINTER_ROLE`.\n     */\n    function mint(address to) public {\n        require(hasRole(MINTER_ROLE, _msgSender()), \"ERC721PresetMinterPauserAutoId: must have minter role to mint\");\n\n        // We can just use balanceOf to create the new tokenId because tokens\n        // can be burned (destroyed), so we need a separate counter.\n        _mint(to, _tokenIdTracker.current());\n        _tokenIdTracker.increment();\n    }\n\n    /**\n     * @dev Pauses all token transfers.\n     *\n     * See {ERC721Pausable} and {Pausable-_pause}.\n     *\n     * Requirements:\n     *\n     * - the caller must have the `PAUSER_ROLE`.\n     */\n    function pause() public {\n        require(hasRole(PAUSER_ROLE, _msgSender()), \"ERC721PresetMinterPauserAutoId: must have pauser role to pause\");\n        _pause();\n    }\n\n    /**\n     * @dev Unpauses all token transfers.\n     *\n     * See {ERC721Pausable} and {Pausable-_unpause}.\n     *\n     * Requirements:\n     *\n     * - the caller must have the `PAUSER_ROLE`.\n     */\n    function unpause() public {\n        require(hasRole(PAUSER_ROLE, _msgSender()), \"ERC721PresetMinterPauserAutoId: must have pauser role to unpause\");\n        _unpause();\n    }\n\n    function _beforeTokenTransfer(address from, address to, uint256 tokenId) internal override(ERC721UpgradeSafe, ERC721PausableUpgradeSafe) {\n        super._beforeTokenTransfer(from, to, tokenId);\n    }\n\n    uint256[49] private __gap;\n}\n",
  "sourcePath": "contracts/presets/ERC721PresetMinterPauserAutoId.sol",
  "abi": [
    {
      "anonymous": false,
      "inputs": [
        {
          "indexed": true,
          "internalType": "address",
          "name": "owner",
          "type": "address"
        },
        {
          "indexed": true,
          "internalType": "address",
          "name": "approved",
          "type": "address"
        },
        {
          "indexed": true,
          "internalType": "uint256",
          "name": "tokenId",
          "type": "uint256"
        }
      ],
      "name": "Approval",
      "type": "event"
    },
    {
      "anonymous": false,
      "inputs": [
        {
          "indexed": true,
          "internalType": "address",
          "name": "owner",
          "type": "address"
        },
        {
          "indexed": true,
          "internalType": "address",
          "name": "operator",
          "type": "address"
        },
        {
          "indexed": false,
          "internalType": "bool",
          "name": "approved",
          "type": "bool"
        }
      ],
      "name": "ApprovalForAll",
      "type": "event"
    },
    {
      "anonymous": false,
      "inputs": [
        {
          "indexed": false,
          "internalType": "address",
          "name": "account",
          "type": "address"
        }
      ],
      "name": "Paused",
      "type": "event"
    },
    {
      "anonymous": false,
      "inputs": [
        {
          "indexed": true,
          "internalType": "bytes32",
          "name": "role",
          "type": "bytes32"
        },
        {
          "indexed": true,
          "internalType": "address",
          "name": "account",
          "type": "address"
        },
        {
          "indexed": true,
          "internalType": "address",
          "name": "sender",
          "type": "address"
        }
      ],
      "name": "RoleGranted",
      "type": "event"
    },
    {
      "anonymous": false,
      "inputs": [
        {
          "indexed": true,
          "internalType": "bytes32",
          "name": "role",
          "type": "bytes32"
        },
        {
          "indexed": true,
          "internalType": "address",
          "name": "account",
          "type": "address"
        },
        {
          "indexed": true,
          "internalType": "address",
          "name": "sender",
          "type": "address"
        }
      ],
      "name": "RoleRevoked",
      "type": "event"
    },
    {
      "anonymous": false,
      "inputs": [
        {
          "indexed": true,
          "internalType": "address",
          "name": "from",
          "type": "address"
        },
        {
          "indexed": true,
          "internalType": "address",
          "name": "to",
          "type": "address"
        },
        {
          "indexed": true,
          "internalType": "uint256",
          "name": "tokenId",
          "type": "uint256"
        }
      ],
      "name": "Transfer",
      "type": "event"
    },
    {
      "anonymous": false,
      "inputs": [
        {
          "indexed": false,
          "internalType": "address",
          "name": "account",
          "type": "address"
        }
      ],
      "name": "Unpaused",
      "type": "event"
    },
    {
      "inputs": [],
      "name": "DEFAULT_ADMIN_ROLE",
      "outputs": [
        {
          "internalType": "bytes32",
          "name": "",
          "type": "bytes32"
        }
      ],
      "stateMutability": "view",
      "type": "function"
    },
    {
      "inputs": [],
      "name": "MINTER_ROLE",
      "outputs": [
        {
          "internalType": "bytes32",
          "name": "",
          "type": "bytes32"
        }
      ],
      "stateMutability": "view",
      "type": "function"
    },
    {
      "inputs": [],
      "name": "PAUSER_ROLE",
      "outputs": [
        {
          "internalType": "bytes32",
          "name": "",
          "type": "bytes32"
        }
      ],
      "stateMutability": "view",
      "type": "function"
    },
    {
      "inputs": [
        {
          "internalType": "address",
          "name": "to",
          "type": "address"
        },
        {
          "internalType": "uint256",
          "name": "tokenId",
          "type": "uint256"
        }
      ],
      "name": "approve",
      "outputs": [],
      "stateMutability": "nonpayable",
      "type": "function"
    },
    {
      "inputs": [
        {
          "internalType": "address",
          "name": "owner",
          "type": "address"
        }
      ],
      "name": "balanceOf",
      "outputs": [
        {
          "internalType": "uint256",
          "name": "",
          "type": "uint256"
        }
      ],
      "stateMutability": "view",
      "type": "function"
    },
    {
      "inputs": [],
      "name": "baseURI",
      "outputs": [
        {
          "internalType": "string",
          "name": "",
          "type": "string"
        }
      ],
      "stateMutability": "view",
      "type": "function"
    },
    {
      "inputs": [
        {
          "internalType": "uint256",
          "name": "tokenId",
          "type": "uint256"
        }
      ],
      "name": "burn",
      "outputs": [],
      "stateMutability": "nonpayable",
      "type": "function"
    },
    {
      "inputs": [
        {
          "internalType": "uint256",
          "name": "tokenId",
          "type": "uint256"
        }
      ],
      "name": "getApproved",
      "outputs": [
        {
          "internalType": "address",
          "name": "",
          "type": "address"
        }
      ],
      "stateMutability": "view",
      "type": "function"
    },
    {
      "inputs": [
        {
          "internalType": "bytes32",
          "name": "role",
          "type": "bytes32"
        }
      ],
      "name": "getRoleAdmin",
      "outputs": [
        {
          "internalType": "bytes32",
          "name": "",
          "type": "bytes32"
        }
      ],
      "stateMutability": "view",
      "type": "function"
    },
    {
      "inputs": [
        {
          "internalType": "bytes32",
          "name": "role",
          "type": "bytes32"
        },
        {
          "internalType": "uint256",
          "name": "index",
          "type": "uint256"
        }
      ],
      "name": "getRoleMember",
      "outputs": [
        {
          "internalType": "address",
          "name": "",
          "type": "address"
        }
      ],
      "stateMutability": "view",
      "type": "function"
    },
    {
      "inputs": [
        {
          "internalType": "bytes32",
          "name": "role",
          "type": "bytes32"
        }
      ],
      "name": "getRoleMemberCount",
      "outputs": [
        {
          "internalType": "uint256",
          "name": "",
          "type": "uint256"
        }
      ],
      "stateMutability": "view",
      "type": "function"
    },
    {
      "inputs": [
        {
          "internalType": "bytes32",
          "name": "role",
          "type": "bytes32"
        },
        {
          "internalType": "address",
          "name": "account",
          "type": "address"
        }
      ],
      "name": "grantRole",
      "outputs": [],
      "stateMutability": "nonpayable",
      "type": "function"
    },
    {
      "inputs": [
        {
          "internalType": "bytes32",
          "name": "role",
          "type": "bytes32"
        },
        {
          "internalType": "address",
          "name": "account",
          "type": "address"
        }
      ],
      "name": "hasRole",
      "outputs": [
        {
          "internalType": "bool",
          "name": "",
          "type": "bool"
        }
      ],
      "stateMutability": "view",
      "type": "function"
    },
    {
      "inputs": [
        {
          "internalType": "string",
          "name": "name",
          "type": "string"
        },
        {
          "internalType": "string",
          "name": "symbol",
          "type": "string"
        },
        {
          "internalType": "string",
          "name": "baseURI",
          "type": "string"
        }
      ],
      "name": "initialize",
      "outputs": [],
      "stateMutability": "nonpayable",
      "type": "function"
    },
    {
      "inputs": [
        {
          "internalType": "address",
          "name": "owner",
          "type": "address"
        },
        {
          "internalType": "address",
          "name": "operator",
          "type": "address"
        }
      ],
      "name": "isApprovedForAll",
      "outputs": [
        {
          "internalType": "bool",
          "name": "",
          "type": "bool"
        }
      ],
      "stateMutability": "view",
      "type": "function"
    },
    {
      "inputs": [
        {
          "internalType": "address",
          "name": "to",
          "type": "address"
        }
      ],
      "name": "mint",
      "outputs": [],
      "stateMutability": "nonpayable",
      "type": "function"
    },
    {
      "inputs": [],
      "name": "name",
      "outputs": [
        {
          "internalType": "string",
          "name": "",
          "type": "string"
        }
      ],
      "stateMutability": "view",
      "type": "function"
    },
    {
      "inputs": [
        {
          "internalType": "uint256",
          "name": "tokenId",
          "type": "uint256"
        }
      ],
      "name": "ownerOf",
      "outputs": [
        {
          "internalType": "address",
          "name": "",
          "type": "address"
        }
      ],
      "stateMutability": "view",
      "type": "function"
    },
    {
      "inputs": [],
      "name": "pause",
      "outputs": [],
      "stateMutability": "nonpayable",
      "type": "function"
    },
    {
      "inputs": [],
      "name": "paused",
      "outputs": [
        {
          "internalType": "bool",
          "name": "",
          "type": "bool"
        }
      ],
      "stateMutability": "view",
      "type": "function"
    },
    {
      "inputs": [
        {
          "internalType": "bytes32",
          "name": "role",
          "type": "bytes32"
        },
        {
          "internalType": "address",
          "name": "account",
          "type": "address"
        }
      ],
      "name": "renounceRole",
      "outputs": [],
      "stateMutability": "nonpayable",
      "type": "function"
    },
    {
      "inputs": [
        {
          "internalType": "bytes32",
          "name": "role",
          "type": "bytes32"
        },
        {
          "internalType": "address",
          "name": "account",
          "type": "address"
        }
      ],
      "name": "revokeRole",
      "outputs": [],
      "stateMutability": "nonpayable",
      "type": "function"
    },
    {
      "inputs": [
        {
          "internalType": "address",
          "name": "from",
          "type": "address"
        },
        {
          "internalType": "address",
          "name": "to",
          "type": "address"
        },
        {
          "internalType": "uint256",
          "name": "tokenId",
          "type": "uint256"
        }
      ],
      "name": "safeTransferFrom",
      "outputs": [],
      "stateMutability": "nonpayable",
      "type": "function"
    },
    {
      "inputs": [
        {
          "internalType": "address",
          "name": "from",
          "type": "address"
        },
        {
          "internalType": "address",
          "name": "to",
          "type": "address"
        },
        {
          "internalType": "uint256",
          "name": "tokenId",
          "type": "uint256"
        },
        {
          "internalType": "bytes",
          "name": "_data",
          "type": "bytes"
        }
      ],
      "name": "safeTransferFrom",
      "outputs": [],
      "stateMutability": "nonpayable",
      "type": "function"
    },
    {
      "inputs": [
        {
          "internalType": "address",
          "name": "operator",
          "type": "address"
        },
        {
          "internalType": "bool",
          "name": "approved",
          "type": "bool"
        }
      ],
      "name": "setApprovalForAll",
      "outputs": [],
      "stateMutability": "nonpayable",
      "type": "function"
    },
    {
      "inputs": [
        {
          "internalType": "bytes4",
          "name": "interfaceId",
          "type": "bytes4"
        }
      ],
      "name": "supportsInterface",
      "outputs": [
        {
          "internalType": "bool",
          "name": "",
          "type": "bool"
        }
      ],
      "stateMutability": "view",
      "type": "function"
    },
    {
      "inputs": [],
      "name": "symbol",
      "outputs": [
        {
          "internalType": "string",
          "name": "",
          "type": "string"
        }
      ],
      "stateMutability": "view",
      "type": "function"
    },
    {
      "inputs": [
        {
          "internalType": "uint256",
          "name": "index",
          "type": "uint256"
        }
      ],
      "name": "tokenByIndex",
      "outputs": [
        {
          "internalType": "uint256",
          "name": "",
          "type": "uint256"
        }
      ],
      "stateMutability": "view",
      "type": "function"
    },
    {
      "inputs": [
        {
          "internalType": "address",
          "name": "owner",
          "type": "address"
        },
        {
          "internalType": "uint256",
          "name": "index",
          "type": "uint256"
        }
      ],
      "name": "tokenOfOwnerByIndex",
      "outputs": [
        {
          "internalType": "uint256",
          "name": "",
          "type": "uint256"
        }
      ],
      "stateMutability": "view",
      "type": "function"
    },
    {
      "inputs": [
        {
          "internalType": "uint256",
          "name": "tokenId",
          "type": "uint256"
        }
      ],
      "name": "tokenURI",
      "outputs": [
        {
          "internalType": "string",
          "name": "",
          "type": "string"
        }
      ],
      "stateMutability": "view",
      "type": "function"
    },
    {
      "inputs": [],
      "name": "totalSupply",
      "outputs": [
        {
          "internalType": "uint256",
          "name": "",
          "type": "uint256"
        }
      ],
      "stateMutability": "view",
      "type": "function"
    },
    {
      "inputs": [
        {
          "internalType": "address",
          "name": "from",
          "type": "address"
        },
        {
          "internalType": "address",
          "name": "to",
          "type": "address"
        },
        {
          "internalType": "uint256",
          "name": "tokenId",
          "type": "uint256"
        }
      ],
      "name": "transferFrom",
      "outputs": [],
      "stateMutability": "nonpayable",
      "type": "function"
    },
    {
      "inputs": [],
      "name": "unpause",
      "outputs": [],
      "stateMutability": "nonpayable",
      "type": "function"
    }
  ],
  "bytecode": "0x608060405234801561001057600080fd5b50612ecd806100206000396000f3fe608060405234801561001057600080fd5b50600436106101fb5760003560e01c80636a6278421161011a578063a22cb465116100ad578063ca15c8731161007c578063ca15c87314610825578063d539139314610842578063d547741f1461084a578063e63ab1e914610876578063e985e9c51461087e576101fb565b8063a22cb46514610568578063a6487c5314610596578063b88d4fde14610744578063c87b56dd14610808576101fb565b80639010d07c116100e95780639010d07c1461050957806391d148541461052c57806395d89b4114610558578063a217fddf14610560576101fb565b80636a627842146104ad5780636c0360eb146104d357806370a08231146104db5780638456cb5914610501576101fb565b80632f745c591161019257806342966c681161016157806342966c681461044e5780634f6ccce71461046b5780635c975abb146104885780636352211e14610490576101fb565b80632f745c59146103b857806336568abe146103e45780633f4ba83a1461041057806342842e0e14610418576101fb565b806318160ddd116101ce57806318160ddd1461031f57806323b872dd14610339578063248a9ca31461036f5780632f2ff15d1461038c576101fb565b806301ffc9a71461020057806306fdde031461023b578063081812fc146102b8578063095ea7b3146102f1575b600080fd5b6102276004803603602081101561021657600080fd5b50356001600160e01b0319166108ac565b604080519115158252519081900360200190f35b6102436108cf565b6040805160208082528351818301528351919283929083019185019080838360005b8381101561027d578181015183820152602001610265565b50505050905090810190601f1680156102aa5780820380516001836020036101000a031916815260200191505b509250505060405180910390f35b6102d5600480360360208110156102ce57600080fd5b5035610966565b604080516001600160a01b039092168252519081900360200190f35b61031d6004803603604081101561030757600080fd5b506001600160a01b0381351690602001356109c8565b005b610327610aa3565b60408051918252519081900360200190f35b61031d6004803603606081101561034f57600080fd5b506001600160a01b03813581169160208101359091169060400135610ab4565b6103276004803603602081101561038557600080fd5b5035610b0b565b61031d600480360360408110156103a257600080fd5b50803590602001356001600160a01b0316610b20565b610327600480360360408110156103ce57600080fd5b506001600160a01b038135169060200135610b8c565b61031d600480360360408110156103fa57600080fd5b50803590602001356001600160a01b0316610bbd565b61031d610c1e565b61031d6004803603606081101561042e57600080fd5b506001600160a01b03813581169160208101359091169060400135610c8f565b61031d6004803603602081101561046457600080fd5b5035610caa565b6103276004803603602081101561048157600080fd5b5035610cfc565b610227610d18565b6102d5600480360360208110156104a657600080fd5b5035610d22565b61031d600480360360208110156104c357600080fd5b50356001600160a01b0316610d50565b610243610dd6565b610327600480360360208110156104f157600080fd5b50356001600160a01b0316610e37565b61031d610e9f565b6102d56004803603604081101561051f57600080fd5b5080359060200135610f0e565b6102276004803603604081101561054257600080fd5b50803590602001356001600160a01b0316610f2c565b610243610f4a565b610327610fab565b61031d6004803603604081101561057e57600080fd5b506001600160a01b0381351690602001351515610fb0565b61031d600480360360608110156105ac57600080fd5b810190602081018135600160201b8111156105c657600080fd5b8201836020820111156105d857600080fd5b803590602001918460018302840111600160201b831117156105f957600080fd5b91908080601f0160208091040260200160405190810160405280939291908181526020018383808284376000920191909152509295949360208101935035915050600160201b81111561064b57600080fd5b82018360208201111561065d57600080fd5b803590602001918460018302840111600160201b8311171561067e57600080fd5b91908080601f0160208091040260200160405190810160405280939291908181526020018383808284376000920191909152509295949360208101935035915050600160201b8111156106d057600080fd5b8201836020820111156106e257600080fd5b803590602001918460018302840111600160201b8311171561070357600080fd5b91908080601f0160208091040260200160405190810160405280939291908181526020018383808284376000920191909152509295506110b5945050505050565b61031d6004803603608081101561075a57600080fd5b6001600160a01b03823581169260208101359091169160408201359190810190608081016060820135600160201b81111561079457600080fd5b8201836020820111156107a657600080fd5b803590602001918460018302840111600160201b831117156107c757600080fd5b91908080601f0160208091040260200160405190810160405280939291908181526020018383808284376000920191909152509295506110c0945050505050565b6102436004803603602081101561081e57600080fd5b503561111e565b6103276004803603602081101561083b57600080fd5b50356113c5565b6103276113dc565b61031d6004803603604081101561086057600080fd5b50803590602001356001600160a01b03166113ff565b610327611458565b6102276004803603604081101561089457600080fd5b506001600160a01b038135811691602001351661147b565b6001600160e01b0319811660009081526097602052604090205460ff165b919050565b60ce8054604080516020601f600260001961010060018816150201909516949094049384018190048102820181019092528281526060939092909183018282801561095b5780601f106109305761010080835404028352916020019161095b565b820191906000526020600020905b81548152906001019060200180831161093e57829003601f168201915b505050505090505b90565b6000610971826114a9565b6109ac5760405162461bcd60e51b815260040180806020018281038252602c815260200180612cb8602c913960400191505060405180910390fd5b50600090815260cc60205260409020546001600160a01b031690565b60006109d382610d22565b9050806001600160a01b0316836001600160a01b03161415610a265760405162461bcd60e51b8152600401808060200182810382526021815260200180612d6a6021913960400191505060405180910390fd5b806001600160a01b0316610a386114bc565b6001600160a01b03161480610a595750610a5981610a546114bc565b61147b565b610a945760405162461bcd60e51b8152600401808060200182810382526038815260200180612c0b6038913960400191505060405180910390fd5b610a9e83836114c0565b505050565b6000610aaf60ca61152e565b905090565b610ac5610abf6114bc565b82611539565b610b005760405162461bcd60e51b8152600401808060200182810382526031815260200180612d8b6031913960400191505060405180910390fd5b610a9e8383836115dd565b60009081526065602052604090206002015490565b600082815260656020526040902060020154610b4390610b3e6114bc565b610f2c565b610b7e5760405162461bcd60e51b815260040180806020018281038252602f815260200180612aec602f913960400191505060405180910390fd5b610b88828261173b565b5050565b6001600160a01b038216600090815260c960205260408120610bb4908363ffffffff6117aa16565b90505b92915050565b610bc56114bc565b6001600160a01b0316816001600160a01b031614610c145760405162461bcd60e51b815260040180806020018281038252602f815260200180612e69602f913960400191505060405180910390fd5b610b8882826117b6565b604080516a5041555345525f524f4c4560a81b8152905190819003600b019020610c4a90610b3e6114bc565b610c855760405162461bcd60e51b8152600401808060200182810382526040815260200180612e296040913960400191505060405180910390fd5b610c8d611825565b565b610a9e838383604051806020016040528060008152506110c0565b610cb5610abf6114bc565b610cf05760405162461bcd60e51b8152600401808060200182810382526030815260200180612df96030913960400191505060405180910390fd5b610cf9816118c5565b50565b600080610d1060ca8463ffffffff61199e16565b509392505050565b61012d5460ff1690565b6000610bb782604051806060016040528060298152602001612c6d6029913960ca919063ffffffff6119ba16565b604080516a4d494e5445525f524f4c4560a81b8152905190819003600b019020610d7c90610b3e6114bc565b610db75760405162461bcd60e51b815260040180806020018281038252603d815260200180612dbc603d913960400191505060405180910390fd5b610dcb81610dc66101916119d1565b6119d5565b610cf9610191611b0f565b60d18054604080516020601f600260001961010060018816150201909516949094049384018190048102820181019092528281526060939092909183018282801561095b5780601f106109305761010080835404028352916020019161095b565b60006001600160a01b038216610e7e5760405162461bcd60e51b815260040180806020018281038252602a815260200180612c43602a913960400191505060405180910390fd5b6001600160a01b038216600090815260c960205260409020610bb79061152e565b604080516a5041555345525f524f4c4560a81b8152905190819003600b019020610ecb90610b3e6114bc565b610f065760405162461bcd60e51b815260040180806020018281038252603e815260200180612b4d603e913960400191505060405180910390fd5b610c8d611b18565b6000828152606560205260408120610bb4908363ffffffff6117aa16565b6000828152606560205260408120610bb4908363ffffffff611b9b16565b60cf8054604080516020601f600260001961010060018816150201909516949094049384018190048102820181019092528281526060939092909183018282801561095b5780601f106109305761010080835404028352916020019161095b565b600081565b610fb86114bc565b6001600160a01b0316826001600160a01b0316141561101e576040805162461bcd60e51b815260206004820152601960248201527f4552433732313a20617070726f766520746f2063616c6c657200000000000000604482015290519081900360640190fd5b8060cd600061102b6114bc565b6001600160a01b03908116825260208083019390935260409182016000908120918716808252919093529120805460ff19169215159290921790915561106f6114bc565b60408051841515815290516001600160a01b0392909216917f17307eab39ab6107e8899845ad3d59bd9653f200f220920489ca2b5937696c319181900360200190a35050565b610a9e838383611bb0565b6110d16110cb6114bc565b83611539565b61110c5760405162461bcd60e51b8152600401808060200182810382526031815260200180612d8b6031913960400191505060405180910390fd5b61111884848484611c99565b50505050565b6060611129826114a9565b6111645760405162461bcd60e51b815260040180806020018281038252602f815260200180612d3b602f913960400191505060405180910390fd5b600082815260d0602090815260409182902080548351601f60026000196101006001861615020190931692909204918201849004840281018401909452808452606093928301828280156111f95780601f106111ce576101008083540402835291602001916111f9565b820191906000526020600020905b8154815290600101906020018083116111dc57829003601f168201915b505060d154939450505050600260001961010060018416150201909116046112225790506108ca565b8051156112f35760d181604051602001808380546001816001161561010002031660029004801561128a5780601f1061126857610100808354040283529182019161128a565b820191906000526020600020905b815481529060010190602001808311611276575b5050825160208401908083835b602083106112b65780518252601f199092019160209182019101611297565b6001836020036101000a038019825116818451168082178552505050505050905001925050506040516020818303038152906040529150506108ca565b60d16112fe84611ceb565b604051602001808380546001816001161561010002031660029004801561135c5780601f1061133a57610100808354040283529182019161135c565b820191906000526020600020905b815481529060010190602001808311611348575b5050825160208401908083835b602083106113885780518252601f199092019160209182019101611369565b6001836020036101000a03801982511681845116808217855250505050505090500192505050604051602081830303815290604052915050919050565b6000818152606560205260408120610bb79061152e565b604080516a4d494e5445525f524f4c4560a81b8152905190819003600b01902081565b60008281526065602052604090206002015461141d90610b3e6114bc565b610c145760405162461bcd60e51b8152600401808060200182810382526030815260200180612bdb6030913960400191505060405180910390fd5b604080516a5041555345525f524f4c4560a81b8152905190819003600b01902081565b6001600160a01b03918216600090815260cd6020908152604080832093909416825291909152205460ff1690565b6000610bb760ca8363ffffffff611dc616565b3390565b600081815260cc6020526040902080546001600160a01b0319166001600160a01b03841690811790915581906114f582610d22565b6001600160a01b03167f8c5be1e5ebec7d5bd14f71427d1e84f3dd0314c0f7b2291e5b200ac8c7c3b92560405160405180910390a45050565b6000610bb7826119d1565b6000611544826114a9565b61157f5760405162461bcd60e51b815260040180806020018281038252602c815260200180612baf602c913960400191505060405180910390fd5b600061158a83610d22565b9050806001600160a01b0316846001600160a01b031614806115c55750836001600160a01b03166115ba84610966565b6001600160a01b0316145b806115d557506115d5818561147b565b949350505050565b826001600160a01b03166115f082610d22565b6001600160a01b0316146116355760405162461bcd60e51b8152600401808060200182810382526029815260200180612d126029913960400191505060405180910390fd5b6001600160a01b03821661167a5760405162461bcd60e51b8152600401808060200182810382526024815260200180612b8b6024913960400191505060405180910390fd5b611685838383611dd2565b6116906000826114c0565b6001600160a01b038316600090815260c9602052604090206116b8908263ffffffff611ddd16565b506001600160a01b038216600090815260c9602052604090206116e1908263ffffffff611de916565b506116f460ca828463ffffffff611df516565b5080826001600160a01b0316846001600160a01b03167fddf252ad1be2c89b69c2b068fc378daa952ba7f163c4a11628f55a4df523b3ef60405160405180910390a4505050565b6000828152606560205260409020611759908263ffffffff611e0b16565b15610b88576117666114bc565b6001600160a01b0316816001600160a01b0316837f2f8788117e7eff1d82e926ec794901d17c78024a50270940304540a733656f0d60405160405180910390a45050565b6000610bb48383611e20565b60008281526065602052604090206117d4908263ffffffff611e8416565b15610b88576117e16114bc565b6001600160a01b0316816001600160a01b0316837ff6391f5c32d9c69d2a47ea670b442974b53935d1edc7fd64eb21e047a839171b60405160405180910390a45050565b61012d5460ff16611874576040805162461bcd60e51b815260206004820152601460248201527314185d5cd8589b194e881b9bdd081c185d5cd95960621b604482015290519081900360640190fd5b61012d805460ff191690557f5db9ee0a495bf2e6ff9c91a7834c1ba4fdd244a5e8aa4e537bd38aeae4b073aa6118a86114bc565b604080516001600160a01b039092168252519081900360200190a1565b60006118d082610d22565b90506118de81600084611dd2565b6118e96000836114c0565b600082815260d06020526040902054600260001961010060018416150201909116041561192757600082815260d060205260408120611927916129c2565b6001600160a01b038116600090815260c96020526040902061194f908363ffffffff611ddd16565b5061196160ca8363ffffffff611e9916565b5060405182906000906001600160a01b038416907fddf252ad1be2c89b69c2b068fc378daa952ba7f163c4a11628f55a4df523b3ef908390a45050565b60008080806119ad8686611ea5565b9097909650945050505050565b60006119c7848484611f20565b90505b9392505050565b5490565b6001600160a01b038216611a30576040805162461bcd60e51b815260206004820181905260248201527f4552433732313a206d696e7420746f20746865207a65726f2061646472657373604482015290519081900360640190fd5b611a39816114a9565b15611a8b576040805162461bcd60e51b815260206004820152601c60248201527f4552433732313a20746f6b656e20616c7265616479206d696e74656400000000604482015290519081900360640190fd5b611a9760008383611dd2565b6001600160a01b038216600090815260c960205260409020611abf908263ffffffff611de916565b50611ad260ca828463ffffffff611df516565b5060405181906001600160a01b038416906000907fddf252ad1be2c89b69c2b068fc378daa952ba7f163c4a11628f55a4df523b3ef908290a45050565b80546001019055565b61012d5460ff1615611b64576040805162461bcd60e51b815260206004820152601060248201526f14185d5cd8589b194e881c185d5cd95960821b604482015290519081900360640190fd5b61012d805460ff191660011790557f62e78cea01bee320cd4e420270b5ea74000d11b0c9f74754ebdbfc544b05a2586118a86114bc565b6000610bb4836001600160a01b038416611fea565b600054610100900460ff1680611bc95750611bc9612002565b80611bd7575060005460ff16155b611c125760405162461bcd60e51b815260040180806020018281038252602e815260200180612ce4602e913960400191505060405180910390fd5b600054610100900460ff16158015611c3d576000805460ff1961ff0019909116610100171660011790555b611c45612008565b611c4d612008565b611c556120a9565b611c5f8484612146565b611c67612008565b611c6f612241565b611c77612008565b611c828484846122ed565b8015611118576000805461ff001916905550505050565b611ca48484846115dd565b611cb0848484846123ed565b6111185760405162461bcd60e51b8152600401808060200182810382526032815260200180612b1b6032913960400191505060405180910390fd5b606081611d1057506040805180820190915260018152600360fc1b60208201526108ca565b8160005b8115611d2857600101600a82049150611d14565b60608167ffffffffffffffff81118015611d4157600080fd5b506040519080825280601f01601f191660200182016040528015611d6c576020820181803683370190505b50859350905060001982015b8315611dbd57600a840660300160f81b82828060019003935081518110611d9b57fe5b60200101906001600160f81b031916908160001a905350600a84049350611d78565b50949350505050565b6000610bb48383611fea565b610a9e838383612628565b6000610bb48383612677565b6000610bb4838361273d565b60006119c784846001600160a01b038516612787565b6000610bb4836001600160a01b03841661273d565b81546000908210611e625760405162461bcd60e51b8152600401808060200182810382526022815260200180612a9f6022913960400191505060405180910390fd5b826000018281548110611e7157fe5b9060005260206000200154905092915050565b6000610bb4836001600160a01b038416612677565b6000610bb4838361281e565b815460009081908310611ee95760405162461bcd60e51b8152600401808060200182810382526022815260200180612c966022913960400191505060405180910390fd5b6000846000018481548110611efa57fe5b906000526020600020906002020190508060000154816001015492509250509250929050565b60008281526001840160205260408120548281611fbb5760405162461bcd60e51b81526004018080602001828103825283818151815260200191508051906020019080838360005b83811015611f80578181015183820152602001611f68565b50505050905090810190601f168015611fad5780820380516001836020036101000a031916815260200191505b509250505060405180910390fd5b50846000016001820381548110611fce57fe5b9060005260206000209060020201600101549150509392505050565b60009081526001919091016020526040902054151590565b303b1590565b600054610100900460ff16806120215750612021612002565b8061202f575060005460ff16155b61206a5760405162461bcd60e51b815260040180806020018281038252602e815260200180612ce4602e913960400191505060405180910390fd5b600054610100900460ff16158015612095576000805460ff1961ff0019909116610100171660011790555b8015610cf9576000805461ff001916905550565b600054610100900460ff16806120c257506120c2612002565b806120d0575060005460ff16155b61210b5760405162461bcd60e51b815260040180806020018281038252602e815260200180612ce4602e913960400191505060405180910390fd5b600054610100900460ff16158015612136576000805460ff1961ff0019909116610100171660011790555b6120956301ffc9a760e01b6128f2565b600054610100900460ff168061215f575061215f612002565b8061216d575060005460ff16155b6121a85760405162461bcd60e51b815260040180806020018281038252602e815260200180612ce4602e913960400191505060405180910390fd5b600054610100900460ff161580156121d3576000805460ff1961ff0019909116610100171660011790555b82516121e69060ce906020860190612a06565b5081516121fa9060cf906020850190612a06565b5061220b6380ac58cd60e01b6128f2565b61221b635b5e139f60e01b6128f2565b61222b63780e9d6360e01b6128f2565b8015610a9e576000805461ff0019169055505050565b600054610100900460ff168061225a575061225a612002565b80612268575060005460ff16155b6122a35760405162461bcd60e51b815260040180806020018281038252602e815260200180612ce4602e913960400191505060405180910390fd5b600054610100900460ff161580156122ce576000805460ff1961ff0019909116610100171660011790555b61012d805460ff191690558015610cf9576000805461ff001916905550565b600054610100900460ff16806123065750612306612002565b80612314575060005460ff16155b61234f5760405162461bcd60e51b815260040180806020018281038252602e815260200180612ce4602e913960400191505060405180910390fd5b600054610100900460ff1615801561237a576000805460ff1961ff0019909116610100171660011790555b61238c60006123876114bc565b610b7e565b604080516a4d494e5445525f524f4c4560a81b8152905190819003600b0190206123b8906123876114bc565b604080516a5041555345525f524f4c4560a81b8152905190819003600b0190206123e4906123876114bc565b611c8282612976565b6000612401846001600160a01b0316612989565b61240d575060016115d5565b600060606001600160a01b038616630a85bd0160e11b61242b6114bc565b89888860405160240180856001600160a01b03166001600160a01b03168152602001846001600160a01b03166001600160a01b0316815260200183815260200180602001828103825283818151815260200191508051906020019080838360005b838110156124a457818101518382015260200161248c565b50505050905090810190601f1680156124d15780820380516001836020036101000a031916815260200191505b5060408051601f198184030181529181526020820180516001600160e01b03166001600160e01b0319909a16999099178952518151919890975087965094509250829150849050835b602083106125395780518252601f19909201916020918201910161251a565b6001836020036101000a0380198251168184511680821785525050505050509050019150506000604051808303816000865af19150503d806000811461259b576040519150601f19603f3d011682016040523d82523d6000602084013e6125a0565b606091505b5091509150816125f1578051156125ba5780518082602001fd5b60405162461bcd60e51b8152600401808060200182810382526032815260200180612b1b6032913960400191505060405180910390fd5b600081806020019051602081101561260857600080fd5b50516001600160e01b031916630a85bd0160e11b1493506115d592505050565b612633838383610a9e565b61263b610d18565b15610a9e5760405162461bcd60e51b815260040180806020018281038252602b815260200180612ac1602b913960400191505060405180910390fd5b6000818152600183016020526040812054801561273357835460001980830191908101906000908790839081106126aa57fe5b90600052602060002001549050808760000184815481106126c757fe5b6000918252602080832090910192909255828152600189810190925260409020908401905586548790806126f757fe5b60019003818190600052602060002001600090559055866001016000878152602001908152602001600020600090556001945050505050610bb7565b6000915050610bb7565b60006127498383611fea565b61277f57508154600181810184556000848152602080822090930184905584548482528286019093526040902091909155610bb7565b506000610bb7565b6000828152600184016020526040812054806127ec5750506040805180820182528381526020808201848152865460018181018955600089815284812095516002909302909501918255915190820155865486845281880190925292909120556119ca565b828560000160018303815481106127ff57fe5b90600052602060002090600202016001018190555060009150506119ca565b60008181526001830160205260408120548015612733578354600019808301919081019060009087908390811061285157fe5b906000526020600020906002020190508087600001848154811061287157fe5b6000918252602080832084546002909302019182556001938401549184019190915583548252898301905260409020908401905586548790806128b057fe5b6000828152602080822060026000199094019384020182815560019081018390559290935588815289820190925260408220919091559450610bb79350505050565b6001600160e01b03198082161415612951576040805162461bcd60e51b815260206004820152601c60248201527f4552433136353a20696e76616c696420696e7465726661636520696400000000604482015290519081900360640190fd5b6001600160e01b0319166000908152609760205260409020805460ff19166001179055565b8051610b889060d1906020840190612a06565b6000813f7fc5d2460186f7233c927e7db2dcc703c0e500b653ca82273b7bfad8045d85a4708181148015906115d5575050151592915050565b50805460018160011615610100020316600290046000825580601f106129e85750610cf9565b601f016020900490600052602060002090810190610cf99190612a84565b828054600181600116156101000203166002900490600052602060002090601f016020900481019282601f10612a4757805160ff1916838001178555612a74565b82800160010185558215612a74579182015b82811115612a74578251825591602001919060010190612a59565b50612a80929150612a84565b5090565b61096391905b80821115612a805760008155600101612a8a56fe456e756d657261626c655365743a20696e646578206f7574206f6620626f756e64734552433732315061757361626c653a20746f6b656e207472616e73666572207768696c6520706175736564416363657373436f6e74726f6c3a2073656e646572206d75737420626520616e2061646d696e20746f206772616e744552433732313a207472616e7366657220746f206e6f6e20455243373231526563656976657220696d706c656d656e7465724552433732315072657365744d696e7465725061757365724175746f49643a206d75737420686176652070617573657220726f6c6520746f2070617573654552433732313a207472616e7366657220746f20746865207a65726f20616464726573734552433732313a206f70657261746f7220717565727920666f72206e6f6e6578697374656e7420746f6b656e416363657373436f6e74726f6c3a2073656e646572206d75737420626520616e2061646d696e20746f207265766f6b654552433732313a20617070726f76652063616c6c6572206973206e6f74206f776e6572206e6f7220617070726f76656420666f7220616c6c4552433732313a2062616c616e636520717565727920666f7220746865207a65726f20616464726573734552433732313a206f776e657220717565727920666f72206e6f6e6578697374656e7420746f6b656e456e756d657261626c654d61703a20696e646578206f7574206f6620626f756e64734552433732313a20617070726f76656420717565727920666f72206e6f6e6578697374656e7420746f6b656e436f6e747261637420696e7374616e63652068617320616c7265616479206265656e20696e697469616c697a65644552433732313a207472616e73666572206f6620746f6b656e2074686174206973206e6f74206f776e4552433732314d657461646174613a2055524920717565727920666f72206e6f6e6578697374656e7420746f6b656e4552433732313a20617070726f76616c20746f2063757272656e74206f776e65724552433732313a207472616e736665722063616c6c6572206973206e6f74206f776e6572206e6f7220617070726f7665644552433732315072657365744d696e7465725061757365724175746f49643a206d7573742068617665206d696e74657220726f6c6520746f206d696e744552433732314275726e61626c653a2063616c6c6572206973206e6f74206f776e6572206e6f7220617070726f7665644552433732315072657365744d696e7465725061757365724175746f49643a206d75737420686176652070617573657220726f6c6520746f20756e7061757365416363657373436f6e74726f6c3a2063616e206f6e6c792072656e6f756e636520726f6c657320666f722073656c66a2646970667358221220174a83c35a2fbd85fb67ad55b3542c82c2f3a0179044bb1ce49995e5da24309b64736f6c63430006070033",
  "compiler": {
    "name": "solc",
    "version": "0.6.7+commit.b8d736ae.Emscripten.clang",
    "optimizer": {
      "enabled": true,
      "runs": 200
    },
    "evmVersion": "petersburg"
  }
}