{
  "fileName": "Escrow.sol",
  "contractName": "EscrowUpgradeSafe",
  "source": "pragma solidity ^0.6.0;\n\nimport \"../../math/SafeMath.sol\";\nimport \"../../access/Ownable.sol\";\nimport \"../../utils/Address.sol\";\nimport \"../../Initializable.sol\";\n\n /**\n  * @title Escrow\n  * @dev Base escrow contract, holds funds designated for a payee until they\n  * withdraw them.\n  *\n  * Intended usage: This contract (and derived escrow contracts) should be a\n  * standalone contract, that only interacts with the contract that instantiated\n  * it. That way, it is guaranteed that all Ether will be handled according to\n  * the `Escrow` rules, and there is no need to check for payable functions or\n  * transfers in the inheritance tree. The contract that uses the escrow as its\n  * payment method should be its owner, and provide public methods redirecting\n  * to the escrow's deposit and withdraw.\n  */\ncontract EscrowUpgradeSafe is Initializable, OwnableUpgradeSafe {\n    function initialize() public {\n        __Escrow_init();\n    }\n\n    function __Escrow_init() internal initializer {\n        __Context_init_unchained();\n        __Ownable_init_unchained();\n        __Escrow_init_unchained();\n    }\n\n    function __Escrow_init_unchained() internal initializer {\n\n\n    }\n\n    using SafeMath for uint256;\n    using Address for address payable;\n\n    event Deposited(address indexed payee, uint256 weiAmount);\n    event Withdrawn(address indexed payee, uint256 weiAmount);\n\n    mapping(address => uint256) private _deposits;\n\n    function depositsOf(address payee) public view returns (uint256) {\n        return _deposits[payee];\n    }\n\n    /**\n     * @dev Stores the sent amount as credit to be withdrawn.\n     * @param payee The destination address of the funds.\n     */\n    function deposit(address payee) public virtual payable onlyOwner {\n        uint256 amount = msg.value;\n        _deposits[payee] = _deposits[payee].add(amount);\n\n        emit Deposited(payee, amount);\n    }\n\n    /**\n     * @dev Withdraw accumulated balance for a payee, forwarding all gas to the\n     * recipient.\n     *\n     * WARNING: Forwarding all gas opens the door to reentrancy vulnerabilities.\n     * Make sure you trust the recipient, or are either following the\n     * checks-effects-interactions pattern or using {ReentrancyGuard}.\n     *\n     * @param payee The address whose funds will be withdrawn and transferred to.\n     */\n    function withdraw(address payable payee) public virtual onlyOwner {\n        uint256 payment = _deposits[payee];\n\n        _deposits[payee] = 0;\n\n        payee.sendValue(payment);\n\n        emit Withdrawn(payee, payment);\n    }\n\n    uint256[49] private __gap;\n}\n",
  "sourcePath": "contracts/payment/escrow/Escrow.sol",
  "abi": [
    {
      "anonymous": false,
      "inputs": [
        {
          "indexed": true,
          "internalType": "address",
          "name": "payee",
          "type": "address"
        },
        {
          "indexed": false,
          "internalType": "uint256",
          "name": "weiAmount",
          "type": "uint256"
        }
      ],
      "name": "Deposited",
      "type": "event"
    },
    {
      "anonymous": false,
      "inputs": [
        {
          "indexed": true,
          "internalType": "address",
          "name": "previousOwner",
          "type": "address"
        },
        {
          "indexed": true,
          "internalType": "address",
          "name": "newOwner",
          "type": "address"
        }
      ],
      "name": "OwnershipTransferred",
      "type": "event"
    },
    {
      "anonymous": false,
      "inputs": [
        {
          "indexed": true,
          "internalType": "address",
          "name": "payee",
          "type": "address"
        },
        {
          "indexed": false,
          "internalType": "uint256",
          "name": "weiAmount",
          "type": "uint256"
        }
      ],
      "name": "Withdrawn",
      "type": "event"
    },
    {
      "inputs": [
        {
          "internalType": "address",
          "name": "payee",
          "type": "address"
        }
      ],
      "name": "deposit",
      "outputs": [],
      "stateMutability": "payable",
      "type": "function"
    },
    {
      "inputs": [
        {
          "internalType": "address",
          "name": "payee",
          "type": "address"
        }
      ],
      "name": "depositsOf",
      "outputs": [
        {
          "internalType": "uint256",
          "name": "",
          "type": "uint256"
        }
      ],
      "stateMutability": "view",
      "type": "function"
    },
    {
      "inputs": [],
      "name": "initialize",
      "outputs": [],
      "stateMutability": "nonpayable",
      "type": "function"
    },
    {
      "inputs": [],
      "name": "owner",
      "outputs": [
        {
          "internalType": "address",
          "name": "",
          "type": "address"
        }
      ],
      "stateMutability": "view",
      "type": "function"
    },
    {
      "inputs": [],
      "name": "renounceOwnership",
      "outputs": [],
      "stateMutability": "nonpayable",
      "type": "function"
    },
    {
      "inputs": [
        {
          "internalType": "address",
          "name": "newOwner",
          "type": "address"
        }
      ],
      "name": "transferOwnership",
      "outputs": [],
      "stateMutability": "nonpayable",
      "type": "function"
    },
    {
      "inputs": [
        {
          "internalType": "address payable",
          "name": "payee",
          "type": "address"
        }
      ],
      "name": "withdraw",
      "outputs": [],
      "stateMutability": "nonpayable",
      "type": "function"
    }
  ],
  "bytecode": "0x608060405234801561001057600080fd5b506109a1806100206000396000f3fe6080604052600436106100705760003560e01c80638da5cb5b1161004e5780638da5cb5b146100d4578063e3a9db1a14610105578063f2fde38b1461014a578063f340fa011461017d57610070565b806351cff8d914610075578063715018a6146100aa5780638129fc1c146100bf575b600080fd5b34801561008157600080fd5b506100a86004803603602081101561009857600080fd5b50356001600160a01b03166101a3565b005b3480156100b657600080fd5b506100a861026c565b3480156100cb57600080fd5b506100a861030e565b3480156100e057600080fd5b506100e9610318565b604080516001600160a01b039092168252519081900360200190f35b34801561011157600080fd5b506101386004803603602081101561012857600080fd5b50356001600160a01b0316610327565b60408051918252519081900360200190f35b34801561015657600080fd5b506100a86004803603602081101561016d57600080fd5b50356001600160a01b0316610342565b6100a86004803603602081101561019357600080fd5b50356001600160a01b031661043b565b6101ab610514565b6065546001600160a01b039081169116146101fb576040805162461bcd60e51b8152602060048201819052602482015260008051602061091e833981519152604482015290519081900360640190fd5b6001600160a01b0381166000818152609760205260408120805491905590610229908263ffffffff61051816565b6040805182815290516001600160a01b038416917f7084f5476618d8e60b11ef0d7d3f06914655adb8793e28ff7f018d4c76d505d5919081900360200190a25050565b610274610514565b6065546001600160a01b039081169116146102c4576040805162461bcd60e51b8152602060048201819052602482015260008051602061091e833981519152604482015290519081900360640190fd5b6065546040516000916001600160a01b0316907f8be0079c531659141344cd1fd0a4f28419497f9722a3daafe3b4186f6b6457e0908390a3606580546001600160a01b0319169055565b610316610603565b565b6065546001600160a01b031690565b6001600160a01b031660009081526097602052604090205490565b61034a610514565b6065546001600160a01b0390811691161461039a576040805162461bcd60e51b8152602060048201819052602482015260008051602061091e833981519152604482015290519081900360640190fd5b6001600160a01b0381166103df5760405162461bcd60e51b81526004018080602001828103825260268152602001806108be6026913960400191505060405180910390fd5b6065546040516001600160a01b038084169216907f8be0079c531659141344cd1fd0a4f28419497f9722a3daafe3b4186f6b6457e090600090a3606580546001600160a01b0319166001600160a01b0392909216919091179055565b610443610514565b6065546001600160a01b03908116911614610493576040805162461bcd60e51b8152602060048201819052602482015260008051602061091e833981519152604482015290519081900360640190fd5b6001600160a01b03811660009081526097602052604090205434906104be908263ffffffff6106bd16565b6001600160a01b038316600081815260976020908152604091829020939093558051848152905191927f2da466a7b24304f47e87fa2e1e5a81b9831ce54fec19055ce277ca2f39ba42c492918290030190a25050565b3390565b303181111561056e576040805162461bcd60e51b815260206004820152601d60248201527f416464726573733a20696e73756666696369656e742062616c616e6365000000604482015290519081900360640190fd5b6040516000906001600160a01b0384169083908381818185875af1925050503d80600081146105b9576040519150601f19603f3d011682016040523d82523d6000602084013e6105be565b606091505b50509050806105fe5760405162461bcd60e51b815260040180806020018281038252603a8152602001806108e4603a913960400191505060405180910390fd5b505050565b600054610100900460ff168061061c575061061c61071e565b8061062a575060005460ff16155b6106655760405162461bcd60e51b815260040180806020018281038252602e81526020018061093e602e913960400191505060405180910390fd5b600054610100900460ff16158015610690576000805460ff1961ff0019909116610100171660011790555b610698610724565b6106a06107c4565b6106a8610724565b80156106ba576000805461ff00191690555b50565b600082820183811015610717576040805162461bcd60e51b815260206004820152601b60248201527f536166654d6174683a206164646974696f6e206f766572666c6f770000000000604482015290519081900360640190fd5b9392505050565b303b1590565b600054610100900460ff168061073d575061073d61071e565b8061074b575060005460ff16155b6107865760405162461bcd60e51b815260040180806020018281038252602e81526020018061093e602e913960400191505060405180910390fd5b600054610100900460ff161580156106a8576000805460ff1961ff00199091166101001716600117905580156106ba576000805461ff001916905550565b600054610100900460ff16806107dd57506107dd61071e565b806107eb575060005460ff16155b6108265760405162461bcd60e51b815260040180806020018281038252602e81526020018061093e602e913960400191505060405180910390fd5b600054610100900460ff16158015610851576000805460ff1961ff0019909116610100171660011790555b600061085b610514565b606580546001600160a01b0319166001600160a01b038316908117909155604051919250906000907f8be0079c531659141344cd1fd0a4f28419497f9722a3daafe3b4186f6b6457e0908290a35080156106ba576000805461ff00191690555056fe4f776e61626c653a206e6577206f776e657220697320746865207a65726f2061646472657373416464726573733a20756e61626c6520746f2073656e642076616c75652c20726563697069656e74206d617920686176652072657665727465644f776e61626c653a2063616c6c6572206973206e6f7420746865206f776e6572436f6e747261637420696e7374616e63652068617320616c7265616479206265656e20696e697469616c697a6564a2646970667358221220352107050a949429bed7befb1122d94ed1cbb1e1b65f69858996d72a9561dfbb64736f6c63430006070033",
  "compiler": {
    "name": "solc",
    "version": "0.6.7+commit.b8d736ae.Emscripten.clang",
    "optimizer": {
      "enabled": true,
      "runs": 200
    },
    "evmVersion": "petersburg"
  }
}