{
  "fileName": "GSNRecipientERC20Fee.sol",
  "contractName": "GSNRecipientERC20FeeUpgradeSafe",
  "source": "pragma solidity ^0.6.0;\n\nimport \"./GSNRecipient.sol\";\nimport \"../math/SafeMath.sol\";\nimport \"../access/Ownable.sol\";\nimport \"../token/ERC20/SafeERC20.sol\";\nimport \"../token/ERC20/ERC20.sol\";\nimport \"../Initializable.sol\";\n\n/**\n * @dev A xref:ROOT:gsn-strategies.adoc#gsn-strategies[GSN strategy] that charges transaction fees in a special purpose ERC20\n * token, which we refer to as the gas payment token. The amount charged is exactly the amount of Ether charged to the\n * recipient. This means that the token is essentially pegged to the value of Ether.\n *\n * The distribution strategy of the gas payment token to users is not defined by this contract. It's a mintable token\n * whose only minter is the recipient, so the strategy must be implemented in a derived contract, making use of the\n * internal {_mint} function.\n */\ncontract GSNRecipientERC20FeeUpgradeSafe is Initializable, GSNRecipientUpgradeSafe {\n    using SafeERC20 for __unstable__ERC20Owned;\n    using SafeMath for uint256;\n\n    enum GSNRecipientERC20FeeErrorCodes {\n        INSUFFICIENT_BALANCE\n    }\n\n    __unstable__ERC20Owned private _token;\n\n    /**\n     * @dev The arguments to the constructor are the details that the gas payment token will have: `name` and `symbol`. `decimals` is hard-coded to 18.\n     */\n\n    function __GSNRecipientERC20Fee_init(string memory name, string memory symbol) internal initializer {\n        __Context_init_unchained();\n        __GSNRecipient_init_unchained();\n        __GSNRecipientERC20Fee_init_unchained(name, symbol);\n    }\n\n    function __GSNRecipientERC20Fee_init_unchained(string memory name, string memory symbol) internal initializer {\n\n\n        _token = new __unstable__ERC20Owned(name, symbol);\n\n    }\n\n\n    /**\n     * @dev Returns the gas payment token.\n     */\n    function token() public view returns (IERC20) {\n        return IERC20(_token);\n    }\n\n    /**\n     * @dev Internal function that mints the gas payment token. Derived contracts should expose this function in their public API, with proper access control mechanisms.\n     */\n    function _mint(address account, uint256 amount) internal virtual {\n        _token.mint(account, amount);\n    }\n\n    /**\n     * @dev Ensures that only users with enough gas payment token balance can have transactions relayed through the GSN.\n     */\n    function acceptRelayedCall(\n        address,\n        address from,\n        bytes memory,\n        uint256 transactionFee,\n        uint256 gasPrice,\n        uint256,\n        uint256,\n        bytes memory,\n        uint256 maxPossibleCharge\n    )\n        public\n        view\n        virtual\n        override\n        returns (uint256, bytes memory)\n    {\n        if (_token.balanceOf(from) < maxPossibleCharge) {\n            return _rejectRelayedCall(uint256(GSNRecipientERC20FeeErrorCodes.INSUFFICIENT_BALANCE));\n        }\n\n        return _approveRelayedCall(abi.encode(from, maxPossibleCharge, transactionFee, gasPrice));\n    }\n\n    /**\n     * @dev Implements the precharge to the user. The maximum possible charge (depending on gas limit, gas price, and\n     * fee) will be deducted from the user balance of gas payment token. Note that this is an overestimation of the\n     * actual charge, necessary because we cannot predict how much gas the execution will actually need. The remainder\n     * is returned to the user in {_postRelayedCall}.\n     */\n    function _preRelayedCall(bytes memory context) internal virtual override returns (bytes32) {\n        (address from, uint256 maxPossibleCharge) = abi.decode(context, (address, uint256));\n\n        // The maximum token charge is pre-charged from the user\n        _token.safeTransferFrom(from, address(this), maxPossibleCharge);\n    }\n\n    /**\n     * @dev Returns to the user the extra amount that was previously charged, once the actual execution cost is known.\n     */\n    function _postRelayedCall(bytes memory context, bool, uint256 actualCharge, bytes32) internal virtual override {\n        (address from, uint256 maxPossibleCharge, uint256 transactionFee, uint256 gasPrice) =\n            abi.decode(context, (address, uint256, uint256, uint256));\n\n        // actualCharge is an _estimated_ charge, which assumes postRelayedCall will use all available gas.\n        // This implementation's gas cost can be roughly estimated as 10k gas, for the two SSTORE operations in an\n        // ERC20 transfer.\n        uint256 overestimation = _computeCharge(_POST_RELAYED_CALL_MAX_GAS.sub(10000), gasPrice, transactionFee);\n        actualCharge = actualCharge.sub(overestimation);\n\n        // After the relayed call has been executed and the actual charge estimated, the excess pre-charge is returned\n        _token.safeTransfer(from, maxPossibleCharge.sub(actualCharge));\n    }\n\n    uint256[49] private __gap;\n}\n\n/**\n * @title __unstable__ERC20Owned\n * @dev An ERC20 token owned by another contract, which has minting permissions and can use transferFrom to receive\n * anyone's tokens. This contract is an internal helper for GSNRecipientERC20Fee, and should not be used\n * outside of this context.\n */\n// solhint-disable-next-line contract-name-camelcase\ncontract __unstable__ERC20Owned is Initializable, ERC20UpgradeSafe, OwnableUpgradeSafe {\n    uint256 private constant _UINT256_MAX = 2**256 - 1;\n\n\n    constructor(string memory name, string memory symbol) public  {\n        ____unstable__ERC20Owned_init(name, symbol);\n    }\n\n    function ____unstable__ERC20Owned_init(string memory name, string memory symbol) internal initializer {\n        __Context_init_unchained();\n        __ERC20_init_unchained(name, symbol);\n        __Ownable_init_unchained();\n        ____unstable__ERC20Owned_init_unchained(name, symbol);\n    }\n\n    function ____unstable__ERC20Owned_init_unchained(string memory name, string memory symbol) internal initializer {\n\n\n    }\n\n\n    // The owner (GSNRecipientERC20Fee) can mint tokens\n    function mint(address account, uint256 amount) public onlyOwner {\n        _mint(account, amount);\n    }\n\n    // The owner has 'infinite' allowance for all token holders\n    function allowance(address tokenOwner, address spender) public view override returns (uint256) {\n        if (spender == owner()) {\n            return _UINT256_MAX;\n        } else {\n            return super.allowance(tokenOwner, spender);\n        }\n    }\n\n    // Allowance for the owner cannot be changed (it is always 'infinite')\n    function _approve(address tokenOwner, address spender, uint256 value) internal override {\n        if (spender == owner()) {\n            return;\n        } else {\n            super._approve(tokenOwner, spender, value);\n        }\n    }\n\n    function transferFrom(address sender, address recipient, uint256 amount) public override returns (bool) {\n        if (recipient == owner()) {\n            _transfer(sender, recipient, amount);\n            return true;\n        } else {\n            return super.transferFrom(sender, recipient, amount);\n        }\n    }\n\n    uint256[50] private __gap;\n}\n",
  "sourcePath": "contracts/GSN/GSNRecipientERC20Fee.sol",
  "abi": [
    {
      "anonymous": false,
      "inputs": [
        {
          "indexed": true,
          "internalType": "address",
          "name": "oldRelayHub",
          "type": "address"
        },
        {
          "indexed": true,
          "internalType": "address",
          "name": "newRelayHub",
          "type": "address"
        }
      ],
      "name": "RelayHubChanged",
      "type": "event"
    },
    {
      "inputs": [
        {
          "internalType": "address",
          "name": "",
          "type": "address"
        },
        {
          "internalType": "address",
          "name": "from",
          "type": "address"
        },
        {
          "internalType": "bytes",
          "name": "",
          "type": "bytes"
        },
        {
          "internalType": "uint256",
          "name": "transactionFee",
          "type": "uint256"
        },
        {
          "internalType": "uint256",
          "name": "gasPrice",
          "type": "uint256"
        },
        {
          "internalType": "uint256",
          "name": "",
          "type": "uint256"
        },
        {
          "internalType": "uint256",
          "name": "",
          "type": "uint256"
        },
        {
          "internalType": "bytes",
          "name": "",
          "type": "bytes"
        },
        {
          "internalType": "uint256",
          "name": "maxPossibleCharge",
          "type": "uint256"
        }
      ],
      "name": "acceptRelayedCall",
      "outputs": [
        {
          "internalType": "uint256",
          "name": "",
          "type": "uint256"
        },
        {
          "internalType": "bytes",
          "name": "",
          "type": "bytes"
        }
      ],
      "stateMutability": "view",
      "type": "function"
    },
    {
      "inputs": [],
      "name": "getHubAddr",
      "outputs": [
        {
          "internalType": "address",
          "name": "",
          "type": "address"
        }
      ],
      "stateMutability": "view",
      "type": "function"
    },
    {
      "inputs": [
        {
          "internalType": "bytes",
          "name": "context",
          "type": "bytes"
        },
        {
          "internalType": "bool",
          "name": "success",
          "type": "bool"
        },
        {
          "internalType": "uint256",
          "name": "actualCharge",
          "type": "uint256"
        },
        {
          "internalType": "bytes32",
          "name": "preRetVal",
          "type": "bytes32"
        }
      ],
      "name": "postRelayedCall",
      "outputs": [],
      "stateMutability": "nonpayable",
      "type": "function"
    },
    {
      "inputs": [
        {
          "internalType": "bytes",
          "name": "context",
          "type": "bytes"
        }
      ],
      "name": "preRelayedCall",
      "outputs": [
        {
          "internalType": "bytes32",
          "name": "",
          "type": "bytes32"
        }
      ],
      "stateMutability": "nonpayable",
      "type": "function"
    },
    {
      "inputs": [],
      "name": "relayHubVersion",
      "outputs": [
        {
          "internalType": "string",
          "name": "",
          "type": "string"
        }
      ],
      "stateMutability": "view",
      "type": "function"
    },
    {
      "inputs": [],
      "name": "token",
      "outputs": [
        {
          "internalType": "contract IERC20",
          "name": "",
          "type": "address"
        }
      ],
      "stateMutability": "view",
      "type": "function"
    }
  ],
  "bytecode": "0x608060405234801561001057600080fd5b50610b78806100206000396000f3fe608060405234801561001057600080fd5b50600436106100625760003560e01c806374e861d61461006757806380274db71461008b57806383947ea014610141578063ad61ccd51461031d578063e06e0e221461039a578063fc0c546a1461044d575b600080fd5b61006f610455565b604080516001600160a01b039092168252519081900360200190f35b61012f600480360360208110156100a157600080fd5b810190602081018135600160201b8111156100bb57600080fd5b8201836020820111156100cd57600080fd5b803590602001918460018302840111600160201b831117156100ee57600080fd5b91908080601f016020809104026020016040519081016040528093929190818152602001838380828437600092019190915250929550610464945050505050565b60408051918252519081900360200190f35b61029e600480360361012081101561015857600080fd5b6001600160a01b038235811692602081013590911691810190606081016040820135600160201b81111561018b57600080fd5b82018360208201111561019d57600080fd5b803590602001918460018302840111600160201b831117156101be57600080fd5b91908080601f016020809104026020016040519081016040528093929190818152602001838380828437600092019190915250929584359560208601359560408101359550606081013594509192509060a081019060800135600160201b81111561022857600080fd5b82018360208201111561023a57600080fd5b803590602001918460018302840111600160201b8311171561025b57600080fd5b91908080601f01602080910402602001604051908101604052809392919081815260200183838082843760009201919091525092955050913592506104cc915050565b6040518083815260200180602001828103825283818151815260200191508051906020019080838360005b838110156102e15781810151838201526020016102c9565b50505050905090810190601f16801561030e5780820380516001836020036101000a031916815260200191505b50935050505060405180910390f35b6103256105bb565b6040805160208082528351818301528351919283929083019185019080838360005b8381101561035f578181015183820152602001610347565b50505050905090810190601f16801561038c5780820380516001836020036101000a031916815260200191505b509250505060405180910390f35b61044b600480360360808110156103b057600080fd5b810190602081018135600160201b8111156103ca57600080fd5b8201836020820111156103dc57600080fd5b803590602001918460018302840111600160201b831117156103fd57600080fd5b91908080601f016020809104026020016040519081016040528093929190818152602001838380828437600092019190915250929550505050803515159150602081013590604001356105da565b005b61006f610643565b6065546001600160a01b031690565b600061046e610455565b6001600160a01b0316336001600160a01b0316146104bd5760405162461bcd60e51b8152600401808060200182810382526024815260200180610af56024913960400191505060405180910390fd5b6104c682610652565b92915050565b609754604080516370a0823160e01b81526001600160a01b038b81166004830152915160009360609386939116916370a0823191602480820192602092909190829003018186803b15801561052057600080fd5b505afa158015610534573d6000803e3d6000fd5b505050506040513d602081101561054a57600080fd5b505110156105655761055c600061069f565b915091506105ad565b604080516001600160a01b038c166020820152808201859052606081018a905260808082018a90528251808303909101815260a09091019091526105a8906106b7565b915091505b995099975050505050505050565b6040805180820190915260058152640312e302e360dc1b602082015290565b6105e2610455565b6001600160a01b0316336001600160a01b0316146106315760405162461bcd60e51b8152600401808060200182810382526024815260200180610af56024913960400191505060405180910390fd5b61063d848484846106bc565b50505050565b6097546001600160a01b031690565b600080600083806020019051604081101561066c57600080fd5b5080516020909101516097549193509150610698906001600160a01b031683308463ffffffff61076116565b5050919050565b604080516020810190915260008152600b9190910191565b600091565b6000806000808780602001905160808110156106d757600080fd5b5080516020820151604083015160609093015191965094509092509050600061071561070e620186a061271063ffffffff6107bb16565b8385610804565b9050610727878263ffffffff6107bb16565b96506107568561073d868a63ffffffff6107bb16565b6097546001600160a01b0316919063ffffffff61081216565b505050505050505050565b604080516001600160a01b0380861660248301528416604482015260648082018490528251808303909101815260849091019091526020810180516001600160e01b03166323b872dd60e01b17905261063d908590610869565b60006107fd83836040518060400160405280601e81526020017f536166654d6174683a207375627472616374696f6e206f766572666c6f770000815250610a21565b9392505050565b606490810191909202020490565b604080516001600160a01b038416602482015260448082018490528251808303909101815260649091019091526020810180516001600160e01b031663a9059cbb60e01b179052610864908490610869565b505050565b61087b826001600160a01b0316610ab8565b6108cc576040805162461bcd60e51b815260206004820152601f60248201527f5361666545524332303a2063616c6c20746f206e6f6e2d636f6e747261637400604482015290519081900360640190fd5b60006060836001600160a01b0316836040518082805190602001908083835b6020831061090a5780518252601f1990920191602091820191016108eb565b6001836020036101000a0380198251168184511680821785525050505050509050019150506000604051808303816000865af19150503d806000811461096c576040519150601f19603f3d011682016040523d82523d6000602084013e610971565b606091505b5091509150816109c8576040805162461bcd60e51b815260206004820181905260248201527f5361666545524332303a206c6f772d6c6576656c2063616c6c206661696c6564604482015290519081900360640190fd5b80511561063d578080602001905160208110156109e457600080fd5b505161063d5760405162461bcd60e51b815260040180806020018281038252602a815260200180610b19602a913960400191505060405180910390fd5b60008184841115610ab05760405162461bcd60e51b81526004018080602001828103825283818151815260200191508051906020019080838360005b83811015610a75578181015183820152602001610a5d565b50505050905090810190601f168015610aa25780820380516001836020036101000a031916815260200191505b509250505060405180910390fd5b505050900390565b6000813f7fc5d2460186f7233c927e7db2dcc703c0e500b653ca82273b7bfad8045d85a470818114801590610aec57508115155b94935050505056fe47534e526563697069656e743a2063616c6c6572206973206e6f742052656c61794875625361666545524332303a204552433230206f7065726174696f6e20646964206e6f742073756363656564a264697066735822122011392fe7ed1e366fcdf61bb8829d9d40dfa65e7b1a3e8677cbcecba160944e3164736f6c63430006070033",
  "compiler": {
    "name": "solc",
    "version": "0.6.7+commit.b8d736ae.Emscripten.clang",
    "optimizer": {
      "enabled": true,
      "runs": 200
    },
    "evmVersion": "petersburg"
  }
}