{
  "fileName": "PullPayment.sol",
  "contractName": "PullPaymentUpgradeSafe",
  "source": "pragma solidity ^0.6.2;\n\nimport \"./escrow/Escrow.sol\";\nimport \"../Initializable.sol\";\n\n/**\n * @dev Simple implementation of a\n * https://consensys.github.io/smart-contract-best-practices/recommendations/#favor-pull-over-push-for-external-calls[pull-payment]\n * strategy, where the paying contract doesn't interact directly with the\n * receiver account, which must withdraw its payments itself.\n *\n * Pull-payments are often considered the best practice when it comes to sending\n * Ether, security-wise. It prevents recipients from blocking execution, and\n * eliminates reentrancy concerns.\n *\n * TIP: If you would like to learn more about reentrancy and alternative ways\n * to protect against it, check out our blog post\n * https://blog.openzeppelin.com/reentrancy-after-istanbul/[Reentrancy After Istanbul].\n *\n * To use, derive from the `PullPayment` contract, and use {_asyncTransfer}\n * instead of Solidity's `transfer` function. Payees can query their due\n * payments with {payments}, and retrieve them with {withdrawPayments}.\n */\ncontract PullPaymentUpgradeSafe is Initializable {\n    EscrowUpgradeSafe private _escrow;\n\n\n    function __PullPayment_init() internal initializer {\n        __PullPayment_init_unchained();\n    }\n\n    function __PullPayment_init_unchained() internal initializer {\n\n\n        _escrow = new EscrowUpgradeSafe();\n        _escrow.initialize();\n    }\n\n\n    /**\n     * @dev Withdraw accumulated payments, forwarding all gas to the recipient.\n     *\n     * Note that _any_ account can call this function, not just the `payee`.\n     * This means that contracts unaware of the `PullPayment` protocol can still\n     * receive funds this way, by having a separate account call\n     * {withdrawPayments}.\n     *\n     * WARNING: Forwarding all gas opens the door to reentrancy vulnerabilities.\n     * Make sure you trust the recipient, or are either following the\n     * checks-effects-interactions pattern or using {ReentrancyGuard}.\n     *\n     * @param payee Whose payments will be withdrawn.\n     */\n    function withdrawPayments(address payable payee) public virtual {\n        _escrow.withdraw(payee);\n    }\n\n    /**\n     * @dev Returns the payments owed to an address.\n     * @param dest The creditor's address.\n     */\n    function payments(address dest) public view returns (uint256) {\n        return _escrow.depositsOf(dest);\n    }\n\n    /**\n     * @dev Called by the payer to store the sent amount as credit to be pulled.\n     * Funds sent in this way are stored in an intermediate {Escrow} contract, so\n     * there is no danger of them being spent before withdrawal.\n     *\n     * @param dest The destination address of the funds.\n     * @param amount The amount to transfer.\n     */\n    function _asyncTransfer(address dest, uint256 amount) internal virtual {\n        // solhint-disable-previous-line no-unused-vars\n\n        // TODO: remove the previous linter directive once\n        // https://github.com/protofire/solhint/issues/170 is fixed\n        _escrow.deposit{ value: amount }(dest);\n    }\n\n    uint256[49] private __gap;\n}\n",
  "sourcePath": "contracts/payment/PullPayment.sol",
  "abi": [
    {
      "inputs": [
        {
          "internalType": "address",
          "name": "dest",
          "type": "address"
        }
      ],
      "name": "payments",
      "outputs": [
        {
          "internalType": "uint256",
          "name": "",
          "type": "uint256"
        }
      ],
      "stateMutability": "view",
      "type": "function"
    },
    {
      "inputs": [
        {
          "internalType": "address payable",
          "name": "payee",
          "type": "address"
        }
      ],
      "name": "withdrawPayments",
      "outputs": [],
      "stateMutability": "nonpayable",
      "type": "function"
    }
  ],
  "bytecode": "0x608060405234801561001057600080fd5b506101bd806100206000396000f3fe608060405234801561001057600080fd5b50600436106100365760003560e01c806331b3eb941461003b578063e2982c2114610063575b600080fd5b6100616004803603602081101561005157600080fd5b50356001600160a01b031661009b565b005b6100896004803603602081101561007957600080fd5b50356001600160a01b0316610104565b60408051918252519081900360200190f35b603354604080516351cff8d960e01b81526001600160a01b038481166004830152915191909216916351cff8d991602480830192600092919082900301818387803b1580156100e957600080fd5b505af11580156100fd573d6000803e3d6000fd5b5050505050565b603354604080516371d4ed8d60e11b81526001600160a01b0384811660048301529151600093929092169163e3a9db1a91602480820192602092909190829003018186803b15801561015557600080fd5b505afa158015610169573d6000803e3d6000fd5b505050506040513d602081101561017f57600080fd5b50519291505056fea264697066735822122024cabef3d3fdf4272af371c7dfe853392b18cea276d0ffa75429d5b20a0dac4a64736f6c63430006070033",
  "compiler": {
    "name": "solc",
    "version": "0.6.7+commit.b8d736ae.Emscripten.clang",
    "optimizer": {
      "enabled": true,
      "runs": 200
    },
    "evmVersion": "petersburg"
  }
}