{
  "fileName": "RefundEscrow.sol",
  "contractName": "RefundEscrowUpgradeSafe",
  "source": "pragma solidity ^0.6.0;\n\nimport \"./ConditionalEscrow.sol\";\nimport \"../../Initializable.sol\";\n\n/**\n * @title RefundEscrow\n * @dev Escrow that holds funds for a beneficiary, deposited from multiple\n * parties.\n * @dev Intended usage: See {Escrow}. Same usage guidelines apply here.\n * @dev The owner account (that is, the contract that instantiates this\n * contract) may deposit, close the deposit period, and allow for either\n * withdrawal by the beneficiary, or refunds to the depositors. All interactions\n * with `RefundEscrow` will be made through the owner contract.\n */\ncontract RefundEscrowUpgradeSafe is Initializable, ConditionalEscrowUpgradeSafe {\n    enum State { Active, Refunding, Closed }\n\n    event RefundsClosed();\n    event RefundsEnabled();\n\n    State private _state;\n    address payable private _beneficiary;\n\n    /**\n     * @dev Constructor.\n     * @param beneficiary The beneficiary of the deposits.\n     */\n\n    function __RefundEscrow_init(address payable beneficiary) internal initializer {\n        __Context_init_unchained();\n        __Ownable_init_unchained();\n        __Escrow_init_unchained();\n        __ConditionalEscrow_init_unchained();\n        __RefundEscrow_init_unchained(beneficiary);\n    }\n\n    function __RefundEscrow_init_unchained(address payable beneficiary) internal initializer {\n\n\n        require(beneficiary != address(0), \"RefundEscrow: beneficiary is the zero address\");\n        _beneficiary = beneficiary;\n        _state = State.Active;\n\n    }\n\n\n    /**\n     * @return The current state of the escrow.\n     */\n    function state() public view returns (State) {\n        return _state;\n    }\n\n    /**\n     * @return The beneficiary of the escrow.\n     */\n    function beneficiary() public view returns (address) {\n        return _beneficiary;\n    }\n\n    /**\n     * @dev Stores funds that may later be refunded.\n     * @param refundee The address funds will be sent to if a refund occurs.\n     */\n    function deposit(address refundee) public payable virtual override {\n        require(_state == State.Active, \"RefundEscrow: can only deposit while active\");\n        super.deposit(refundee);\n    }\n\n    /**\n     * @dev Allows for the beneficiary to withdraw their funds, rejecting\n     * further deposits.\n     */\n    function close() public onlyOwner virtual {\n        require(_state == State.Active, \"RefundEscrow: can only close while active\");\n        _state = State.Closed;\n        emit RefundsClosed();\n    }\n\n    /**\n     * @dev Allows for refunds to take place, rejecting further deposits.\n     */\n    function enableRefunds() public onlyOwner virtual {\n        require(_state == State.Active, \"RefundEscrow: can only enable refunds while active\");\n        _state = State.Refunding;\n        emit RefundsEnabled();\n    }\n\n    /**\n     * @dev Withdraws the beneficiary's funds.\n     */\n    function beneficiaryWithdraw() public virtual {\n        require(_state == State.Closed, \"RefundEscrow: beneficiary can only withdraw while closed\");\n        _beneficiary.transfer(address(this).balance);\n    }\n\n    /**\n     * @dev Returns whether refundees can withdraw their deposits (be refunded). The overridden function receives a\n     * 'payee' argument, but we ignore it here since the condition is global, not per-payee.\n     */\n    function withdrawalAllowed(address) public view override returns (bool) {\n        return _state == State.Refunding;\n    }\n\n    uint256[49] private __gap;\n}\n",
  "sourcePath": "contracts/payment/escrow/RefundEscrow.sol",
  "abi": [
    {
      "anonymous": false,
      "inputs": [
        {
          "indexed": true,
          "internalType": "address",
          "name": "payee",
          "type": "address"
        },
        {
          "indexed": false,
          "internalType": "uint256",
          "name": "weiAmount",
          "type": "uint256"
        }
      ],
      "name": "Deposited",
      "type": "event"
    },
    {
      "anonymous": false,
      "inputs": [
        {
          "indexed": true,
          "internalType": "address",
          "name": "previousOwner",
          "type": "address"
        },
        {
          "indexed": true,
          "internalType": "address",
          "name": "newOwner",
          "type": "address"
        }
      ],
      "name": "OwnershipTransferred",
      "type": "event"
    },
    {
      "anonymous": false,
      "inputs": [],
      "name": "RefundsClosed",
      "type": "event"
    },
    {
      "anonymous": false,
      "inputs": [],
      "name": "RefundsEnabled",
      "type": "event"
    },
    {
      "anonymous": false,
      "inputs": [
        {
          "indexed": true,
          "internalType": "address",
          "name": "payee",
          "type": "address"
        },
        {
          "indexed": false,
          "internalType": "uint256",
          "name": "weiAmount",
          "type": "uint256"
        }
      ],
      "name": "Withdrawn",
      "type": "event"
    },
    {
      "inputs": [],
      "name": "beneficiary",
      "outputs": [
        {
          "internalType": "address",
          "name": "",
          "type": "address"
        }
      ],
      "stateMutability": "view",
      "type": "function"
    },
    {
      "inputs": [],
      "name": "beneficiaryWithdraw",
      "outputs": [],
      "stateMutability": "nonpayable",
      "type": "function"
    },
    {
      "inputs": [],
      "name": "close",
      "outputs": [],
      "stateMutability": "nonpayable",
      "type": "function"
    },
    {
      "inputs": [
        {
          "internalType": "address",
          "name": "refundee",
          "type": "address"
        }
      ],
      "name": "deposit",
      "outputs": [],
      "stateMutability": "payable",
      "type": "function"
    },
    {
      "inputs": [
        {
          "internalType": "address",
          "name": "payee",
          "type": "address"
        }
      ],
      "name": "depositsOf",
      "outputs": [
        {
          "internalType": "uint256",
          "name": "",
          "type": "uint256"
        }
      ],
      "stateMutability": "view",
      "type": "function"
    },
    {
      "inputs": [],
      "name": "enableRefunds",
      "outputs": [],
      "stateMutability": "nonpayable",
      "type": "function"
    },
    {
      "inputs": [],
      "name": "initialize",
      "outputs": [],
      "stateMutability": "nonpayable",
      "type": "function"
    },
    {
      "inputs": [],
      "name": "owner",
      "outputs": [
        {
          "internalType": "address",
          "name": "",
          "type": "address"
        }
      ],
      "stateMutability": "view",
      "type": "function"
    },
    {
      "inputs": [],
      "name": "renounceOwnership",
      "outputs": [],
      "stateMutability": "nonpayable",
      "type": "function"
    },
    {
      "inputs": [],
      "name": "state",
      "outputs": [
        {
          "internalType": "enum RefundEscrowUpgradeSafe.State",
          "name": "",
          "type": "uint8"
        }
      ],
      "stateMutability": "view",
      "type": "function"
    },
    {
      "inputs": [
        {
          "internalType": "address",
          "name": "newOwner",
          "type": "address"
        }
      ],
      "name": "transferOwnership",
      "outputs": [],
      "stateMutability": "nonpayable",
      "type": "function"
    },
    {
      "inputs": [
        {
          "internalType": "address payable",
          "name": "payee",
          "type": "address"
        }
      ],
      "name": "withdraw",
      "outputs": [],
      "stateMutability": "nonpayable",
      "type": "function"
    },
    {
      "inputs": [
        {
          "internalType": "address",
          "name": "",
          "type": "address"
        }
      ],
      "name": "withdrawalAllowed",
      "outputs": [
        {
          "internalType": "bool",
          "name": "",
          "type": "bool"
        }
      ],
      "stateMutability": "view",
      "type": "function"
    }
  ],
  "bytecode": "0x608060405234801561001057600080fd5b50610ee6806100206000396000f3fe6080604052600436106100c25760003560e01c80638c52dc411161007f578063c19d93fb11610059578063c19d93fb146101f2578063e3a9db1a1461022b578063f2fde38b14610270578063f340fa01146102a3576100c2565b80638c52dc41146101b35780638da5cb5b146101c85780639af6549a146101dd576100c2565b806338af3eed146100c757806343d726d6146100f857806351cff8d91461010f578063685ca19414610142578063715018a6146101895780638129fc1c1461019e575b600080fd5b3480156100d357600080fd5b506100dc6102c9565b604080516001600160a01b039092168252519081900360200190f35b34801561010457600080fd5b5061010d6102dd565b005b34801561011b57600080fd5b5061010d6004803603602081101561013257600080fd5b50356001600160a01b03166103bc565b34801561014e57600080fd5b506101756004803603602081101561016557600080fd5b50356001600160a01b031661040c565b604080519115158252519081900360200190f35b34801561019557600080fd5b5061010d610428565b3480156101aa57600080fd5b5061010d6104ca565b3480156101bf57600080fd5b5061010d6104d4565b3480156101d457600080fd5b506100dc6105b3565b3480156101e957600080fd5b5061010d6105c2565b3480156101fe57600080fd5b50610207610652565b6040518082600281111561021757fe5b60ff16815260200191505060405180910390f35b34801561023757600080fd5b5061025e6004803603602081101561024e57600080fd5b50356001600160a01b031661065b565b60408051918252519081900360200190f35b34801561027c57600080fd5b5061010d6004803603602081101561029357600080fd5b50356001600160a01b0316610676565b61010d600480360360208110156102b957600080fd5b50356001600160a01b031661076f565b60fb5461010090046001600160a01b031690565b6102e56107c7565b6065546001600160a01b03908116911614610335576040805162461bcd60e51b81526020600482018190526024820152600080516020610e31833981519152604482015290519081900360640190fd5b600060fb5460ff16600281111561034857fe5b146103845760405162461bcd60e51b8152600401808060200182810382526029815260200180610e086029913960400191505060405180910390fd5b60fb805460ff191660021790556040517f088672c3a6e342f7cd94a65ba63b79df24a8973927b4d05d803c44bbf787d12f90600090a1565b6103c58161040c565b6104005760405162461bcd60e51b8152600401808060200182810382526033815260200180610dd56033913960400191505060405180910390fd5b610409816107cb565b50565b6000600160fb5460ff16600281111561042157fe5b1492915050565b6104306107c7565b6065546001600160a01b03908116911614610480576040805162461bcd60e51b81526020600482018190526024820152600080516020610e31833981519152604482015290519081900360640190fd5b6065546040516000916001600160a01b0316907f8be0079c531659141344cd1fd0a4f28419497f9722a3daafe3b4186f6b6457e0908390a3606580546001600160a01b0319169055565b6104d2610894565b565b6104dc6107c7565b6065546001600160a01b0390811691161461052c576040805162461bcd60e51b81526020600482018190526024820152600080516020610e31833981519152604482015290519081900360640190fd5b600060fb5460ff16600281111561053f57fe5b1461057b5760405162461bcd60e51b8152600401808060200182810382526032815260200180610e7f6032913960400191505060405180910390fd5b60fb805460ff191660011790556040517f599d8e5a83cffb867d051598c4d70e805d59802d8081c1c7d6dffc5b6aca2b8990600090a1565b6065546001600160a01b031690565b600260fb5460ff1660028111156105d557fe5b146106115760405162461bcd60e51b8152600401808060200182810382526038815260200180610d126038913960400191505060405180910390fd5b60fb546040516001600160a01b036101009092049190911690303180156108fc02916000818181858888f19350505050158015610409573d6000803e3d6000fd5b60fb5460ff1690565b6001600160a01b031660009081526097602052604090205490565b61067e6107c7565b6065546001600160a01b039081169116146106ce576040805162461bcd60e51b81526020600482018190526024820152600080516020610e31833981519152604482015290519081900360640190fd5b6001600160a01b0381166107135760405162461bcd60e51b8152600401808060200182810382526026815260200180610d4a6026913960400191505060405180910390fd5b6065546040516001600160a01b038084169216907f8be0079c531659141344cd1fd0a4f28419497f9722a3daafe3b4186f6b6457e090600090a3606580546001600160a01b0319166001600160a01b0392909216919091179055565b600060fb5460ff16600281111561078257fe5b146107be5760405162461bcd60e51b815260040180806020018281038252602b815260200180610daa602b913960400191505060405180910390fd5b6104098161094d565b3390565b6107d36107c7565b6065546001600160a01b03908116911614610823576040805162461bcd60e51b81526020600482018190526024820152600080516020610e31833981519152604482015290519081900360640190fd5b6001600160a01b0381166000818152609760205260408120805491905590610851908263ffffffff610a2616565b6040805182815290516001600160a01b038416917f7084f5476618d8e60b11ef0d7d3f06914655adb8793e28ff7f018d4c76d505d5919081900360200190a25050565b600054610100900460ff16806108ad57506108ad610b11565b806108bb575060005460ff16155b6108f65760405162461bcd60e51b815260040180806020018281038252602e815260200180610e51602e913960400191505060405180910390fd5b600054610100900460ff16158015610921576000805460ff1961ff0019909116610100171660011790555b610929610b17565b610931610bb7565b610939610b17565b8015610409576000805461ff001916905550565b6109556107c7565b6065546001600160a01b039081169116146109a5576040805162461bcd60e51b81526020600482018190526024820152600080516020610e31833981519152604482015290519081900360640190fd5b6001600160a01b03811660009081526097602052604090205434906109d0908263ffffffff610cb016565b6001600160a01b038316600081815260976020908152604091829020939093558051848152905191927f2da466a7b24304f47e87fa2e1e5a81b9831ce54fec19055ce277ca2f39ba42c492918290030190a25050565b3031811115610a7c576040805162461bcd60e51b815260206004820152601d60248201527f416464726573733a20696e73756666696369656e742062616c616e6365000000604482015290519081900360640190fd5b6040516000906001600160a01b0384169083908381818185875af1925050503d8060008114610ac7576040519150601f19603f3d011682016040523d82523d6000602084013e610acc565b606091505b5050905080610b0c5760405162461bcd60e51b815260040180806020018281038252603a815260200180610d70603a913960400191505060405180910390fd5b505050565b303b1590565b600054610100900460ff1680610b305750610b30610b11565b80610b3e575060005460ff16155b610b795760405162461bcd60e51b815260040180806020018281038252602e815260200180610e51602e913960400191505060405180910390fd5b600054610100900460ff16158015610939576000805460ff1961ff0019909116610100171660011790558015610409576000805461ff001916905550565b600054610100900460ff1680610bd05750610bd0610b11565b80610bde575060005460ff16155b610c195760405162461bcd60e51b815260040180806020018281038252602e815260200180610e51602e913960400191505060405180910390fd5b600054610100900460ff16158015610c44576000805460ff1961ff0019909116610100171660011790555b6000610c4e6107c7565b606580546001600160a01b0319166001600160a01b038316908117909155604051919250906000907f8be0079c531659141344cd1fd0a4f28419497f9722a3daafe3b4186f6b6457e0908290a3508015610409576000805461ff001916905550565b600082820183811015610d0a576040805162461bcd60e51b815260206004820152601b60248201527f536166654d6174683a206164646974696f6e206f766572666c6f770000000000604482015290519081900360640190fd5b939250505056fe526566756e64457363726f773a2062656e65666963696172792063616e206f6e6c79207769746864726177207768696c6520636c6f7365644f776e61626c653a206e6577206f776e657220697320746865207a65726f2061646472657373416464726573733a20756e61626c6520746f2073656e642076616c75652c20726563697069656e74206d61792068617665207265766572746564526566756e64457363726f773a2063616e206f6e6c79206465706f736974207768696c6520616374697665436f6e646974696f6e616c457363726f773a207061796565206973206e6f7420616c6c6f77656420746f207769746864726177526566756e64457363726f773a2063616e206f6e6c7920636c6f7365207768696c65206163746976654f776e61626c653a2063616c6c6572206973206e6f7420746865206f776e6572436f6e747261637420696e7374616e63652068617320616c7265616479206265656e20696e697469616c697a6564526566756e64457363726f773a2063616e206f6e6c7920656e61626c6520726566756e6473207768696c6520616374697665a2646970667358221220308f4e3512479e135664555152d11db428aa1eacb82e5db5e0733e4d9f2f662d64736f6c63430006070033",
  "compiler": {
    "name": "solc",
    "version": "0.6.7+commit.b8d736ae.Emscripten.clang",
    "optimizer": {
      "enabled": true,
      "runs": 200
    },
    "evmVersion": "petersburg"
  }
}